S01800004D5353315F4D53535F434D335F6170702E73726563D4
S3152000000000000120910100207F03002081030020B1
S3152000001083030020850300208703002000000000C2
S3152000002000000000000000000000000089030020FE
S315200000308B030020000000008D0300208F0300208A
S3152000004091030020930300206D3500209135002078
S31520000050990300209B0300209D0300209F0300207E
S31520000060A1030020A3030020C1220020E5220020B6
S31520000070A9030020AB030020AD0C0020AF03002015
S31520000080B1030020B3030020B5030020B7030020EE
S31520000090B9030020BB030020BD030020BF030020BE
S315200000A0C1030020C3030020C5030020C70300208E
S315200000B0C9030020CB030020CD030020CF0300205E
S315200000C0D1030020D3030020D5030020D70300202E
S315200000D0D9030020DB030020DD030020DF030020FE
S315200000E0E1030020E3030020E5030020E7030020CE
S315200000F0E9030020EB030020ED030020EF0300209E
S31520000100F1030020F3030020F5030020F70300206D
S31520000110F9030020FB030020FD030020FF0300203D
S315200001200104002003040020050400200704002009
S31520000130090400200B0400200D0400200F040020D9
S3152000014011040020130400201504002017040020A9
S31520000150190400201B0400201D0400201F04002079
S315200001602104002023040020250400202704002049
S31520000170290400202B0400202D0400202F04002019
S31520000180310400203304002000000000000000009D
S315200001904FF0000BDFF8BE020068DFF8B6120968E0
S315200001A001F0030100F01C00142801D14BF0020BD2
S315200001B0002901D04BF0010BBBF1000F05D0A74859
S315200001C0A749DFF8722200F09FF8A64880470BF077
S315200001D0020ABAF1000F0CD0DFF86E02DFF86E12B9
S315200001E002680B680FB44FF000024FF0FF03026065
S315200001F00B609D489D4A9E4B022808D1DFF83E128F
S315200002000A60DFF842120A60DFF836120B60012816
S3152000021008D1DFF82E120A60DFF82A120A60DFF80A
S315200002201E120B609348002809D193489349944A9B
S3152000023000F032F893489449944A00F02DF89448F7
S315200002409449954A00F028F894489549DFF8E62124
S3152000025000F05AF8BBF1000F12D092489249DFF80D
S31520000260DA2100F051F80BF0020ABAF1000F07D09C
S315200002700FBC02600B6000BFAFF30080AFF30080BD
S31520000280DFF828020FF2030E00474FF000004FF070
S315200002900001DFF81CF2FEE72DE9F841884225D05F
S315200002A0B2EB010200D5FEE740EA010313F0030397
S315200002B002D000F01DF819E04FF00003904612110D
S315200002C0F7D09A421CBFF0C8F0C103F10103F8D160
S315200002D008F00F08B8F1000F08D004780C7000F170
S315200002E0010001F10101B8F10108F6D1BDE8F8815C
S315200002F008B54FF0000303780B7000F1010001F1FF
S315200003000101013AF7D108BD884237D000F0030633
S31520000310002E14D04FF00405A5EB06044FF0080775
S3152000032007FB06F8914669FA08F9002C07D080F8F1
S31520000330009069FA07F900F10100013CF5E74FF05A
S3152000034000060F46091A8846091191461446154695
S31520000350B14206D018BFA0E8340206F10106B14228
S31520000360F8D108F00F08B8F1000F07D002704FEA55
S31520000370322200F10100B8F10108F4E77047FEE7E8
S31520000380FEE7FEE7FEE7FEE7FEE7FEE7FEE7FEE71F
S31520000390FEE7FEE7FEE7FEE7FEE7FEE7FEE7FEE70F
S315200003A0FEE7FEE7FEE7FEE7FEE7FEE7FEE7FEE7FF
S315200003B0FEE7FEE7FEE7FEE7FEE7FEE7FEE7FEE7EF
S315200003C0FEE7FEE7FEE7FEE7FEE7FEE7FEE7FEE7DF
S315200003D0FEE7FEE7FEE7FEE7FEE7FEE7FEE7FEE7CF
S315200003E0FEE7FEE7FEE7FEE7FEE7FEE7FEE7FEE7BF
S315200003F0FEE7FEE7FEE7FEE7FEE7FEE7FEE7FEE7AF
S31520000400FEE7FEE7FEE7FEE7FEE7FEE7FEE7FEE79E
S31520000410FEE7FEE7FEE7FEE7FEE7FEE7FEE7FEE78E
S31520000420FEE7FEE7FEE7FEE7FEE7FEE7FEE7FEE77E
S31520000430FEE7FEE7704700000000A2A2A2A200800D
S3152000044003400880034010800340308003403480FE
S3152000045003403880034018080240000000F00020C6
S315200004600000012085370020000000000000000069
S315200004700100000000000000000000200000002015
S3152000048090010020C0040020C0040020503C002021
S31520000490503C0020503C0020903C0020903C002006
S315200004A0403E0020403E002000F000205D3A002023
S315200004B089120020AFF30080AFF30080AFF30080F5
S315200004C043F69043C2F200031A780AB90120187045
S315200004D0704700BF43F65040C2F2000008B50368DB
S315200004E02BB140F20003C0F2000303B1984708BDC8
S315200004F080B483B000AF0346FB714EF20013CEF2F8
S31520000500000397F907204FEA5212F97901F01F01EB
S315200005104FF0010000FA01F143F8221007F10C0711
S31520000520BD4680BC704700BF80B483B000AF034691
S31520000530FB714EF20013CEF2000397F907204FEA23
S315200005405212F97901F01F014FF0010000FA01F172
S3152000055002F1200243F8221007F10C07BD4680BCA9
S31520000560704700BF80B483B000AF0346FB714EF2E4
S315200005700013CEF2000397F907204FEA5212F979B9
S3152000058001F01F014FF0010000FA01F102F16002B3
S3152000059043F8221007F10C07BD4680BC704700BF08
S315200005A080B582B000AF0346FB714FF00E00FFF717
S315200005B0BBFF48F20003C4F2030348F20002C4F270
S315200005C00302926C22F040029A6444F20003C4F2C1
S315200005D000034FF000025A6540F20003C4F20823DC
S315200005E04FF00002C3F8802140F20003C4F2082332
S315200005F04FF00002C3F8882140F20003C4F208231A
S31520000600FA79C3F8842144F20003C4F200034FF0C0
S3152000061001021A614FF00E00FFF7A4FF07F1080749
S31520000620BD4680BD80B483B000AF786044F200033D
S31520000630C4F200037A685A6007F10C07BD4680BCF5
S31520000640704700BF80B483B000AF786044F20003E7
S31520000650C4F200037A689A6007F10C07BD4680BC95
S31520000660704700BF80B500AF40F20003C4F20823F4
S315200006704FF00102C3F888214FF00E00FFF738FF34
S3152000068080BD00BF80B500AF40F20003C4F208234E
S315200006904FF00002C3F888214FF00E00FFF744FF09
S315200006A080BD00BF80B400AF44F20003C4F2000353
S315200006B04FF001021A61BFF34F8FBD4680BC7047D1
S315200006C080B584B000AF0346FB714FF00D004FF0AC
S315200006D0000103F01FF84FF00C004FF0000103F06B
S315200006E019F843F6B050C2F200004FF0000102F0B4
S315200006F0F3FB43F65443C2F200031B7843F6B05093
S31520000700C2F20000194602F0B3FC4FF00C004FF085
S31520000710010102F0FFFF43F65443C2F20003FA79C7
S315200007201A7043F65443C2F200031B7843F6B050C6
S31520000730C2F20000194602F09BFC0346DAB243F6E9
S315200007405443C2F200031A704FF00D004FF001011E
S3152000075002F0E0FF4FF00D004FF0000102F0DAFF4B
S315200007604FF00C004FF0000102F0D4FF43F6544343
S31520000770C2F200031B7843F6B050C2F200001946BD
S3152000078002F076FC4FF00C004FF0010102F0C2FFA0
S3152000079043F65443C2F200031B7843F6B050C2F22C
S315200007A00000194602F064FC0346DAB243F65443CD
S315200007B0C2F200031A7043F65443C2F200035B7878
S315200007C043F6B050C2F20000194602F051FC03462F
S315200007D0DAB243F65443C2F200035A7043F6544346
S315200007E0C2F200039B7843F6B050C2F200001946CD
S315200007F002F03EFC0346DAB243F65443C2F200034B
S315200008009A7043F65443C2F20003DB7843F6B050A5
S31520000810C2F20000194602F02BFC0346DAB243F678
S315200008205443C2F20003DA7043F65443C2F2000383
S315200008301B7943F6B050C2F20000194602F018FCAC
S315200008400346DAB243F65443C2F200031A7143F662
S31520000850B050C2F200004FF0000102F0C1FB4FF091
S315200008600C004FF0000102F055FF4FF00003FB6033
S315200008704FF00303FB6000E1FA6843F65443C2F2EB
S3152000088000039B5C03F00F030F2B00F2F28001A202
S3152000089052F823F0D5080020EF080020090900208F
S315200008A0230900203D090020570900207109002056
S315200008B08B090020A5090020BF090020D9090020A6
S315200008C0F30900200D0A0020270A0020410A0020F3
S315200008D05B0A0020FB684FEA430303F1010243F65B
S315200008E05C43C2F200034FF030019954C1E0FB682B
S315200008F04FEA430303F1010243F65C43C2F20003CD
S315200009004FF031019954B4E0FB684FEA430303F1F9
S31520000910010243F65C43C2F200034FF032019954C0
S31520000920A7E0FB684FEA430303F1010243F65C4369
S31520000930C2F200034FF0330199549AE0FB684FEA64
S31520000940430303F1010243F65C43C2F200034FF076
S31520000950340199548DE0FB684FEA430303F1010209
S3152000096043F65C43C2F200034FF03501995480E010
S31520000970FB684FEA430303F1010243F65C43C2F2EC
S3152000098000034FF03601995473E0FB684FEA4303A6
S3152000099003F1010243F65C43C2F200034FF0370134
S315200009A0995466E0FB684FEA430303F1010243F6DC
S315200009B05C43C2F200034FF03801995459E0FB68BA
S315200009C04FEA430303F1010243F65C43C2F20003FC
S315200009D04FF0390199544CE0FB684FEA430303F189
S315200009E0010243F65C43C2F200034FF041019954E1
S315200009F03FE0FB684FEA430303F1010243F65C4301
S31520000A00C2F200034FF04201995432E0FB684FEAEC
S31520000A10430303F1010243F65C43C2F200034FF0A5
S31520000A204301995425E0FB684FEA430303F1010291
S31520000A3043F65C43C2F200034FF04401995418E098
S31520000A40FB684FEA430303F1010243F65C43C2F21B
S31520000A5000034FF0450199540BE0FB684FEA43032E
S31520000A6003F1010243F65C43C2F200034FF0460154
S31520000A709954FB6803F1FF33FB60FB68002BBFF63C
S31520000A80FBAE4FF00303FB60EDE0FA6843F65443F8
S31520000A90C2F200039B5C03F0F003702B7DD0702B19
S31520000AA011DC302B4DD0302B06DC102B33D0202BF5
S31520000AB03CD0002B24D0D2E0502B58D0602B61D0D4
S31520000AC0402B49D0CBE0B02B00F09380B02B07DC35
S31520000AD0902B78D0A02B00F08180802B68D0BEE0B0
S31520000AE0D02B00F09C80D02B03DCC02B00F08C8018
S31520000AF0B5E0E02B00F09E80F02B00F0A680AEE063
S31520000B00FB684FEA430243F65C43C2F200034FF010
S31520000B1030019954A3E0FB684FEA430243F65C4355
S31520000B20C2F200034FF03101995498E0FB684FEA76
S31520000B30430243F65C43C2F200034FF0320199545C
S31520000B408DE0FB684FEA430243F65C43C2F20003A2
S31520000B504FF03301995482E0FB684FEA430243F693
S31520000B605C43C2F200034FF03401995477E0FB68EE
S31520000B704FEA430243F65C43C2F200034FF03501CD
S31520000B8099546CE0FB684FEA430243F65C43C2F299
S31520000B9000034FF03601995461E0FB684FEA4302A7
S31520000BA043F65C43C2F200034FF03701995456E0F6
S31520000BB0FB684FEA430243F65C43C2F200034FF060
S31520000BC0380199544BE0FB684FEA430243F65C43F5
S31520000BD0C2F200034FF03901995440E0FB684FEA16
S31520000BE0430243F65C43C2F200034FF0410199549D
S31520000BF035E0FB684FEA430243F65C43C2F200034A
S31520000C004FF0420199542AE0FB684FEA430243F62B
S31520000C105C43C2F200034FF0430199541FE0FB6886
S31520000C204FEA430243F65C43C2F200034FF044010D
S31520000C30995414E0FB684FEA430243F65C43C2F240
S31520000C4000034FF04501995409E0FB684FEA43023F
S31520000C5043F65C43C2F200034FF046019954FB6809
S31520000C6003F1FF33FB60FB68002BBFF60EAF43F6A4
S31520000C705C43C2F200034FF00D021A7243F65C4346
S31520000C80C2F200034FF00A025A7243F68033C2F2D0
S31520000C9000031B68184643F65C41C2F2000101F0CE
S31520000CA0DBF907F11007BD4680BD00BF80B582B0D5
S31520000CB000AFFFF7F7FC4FF00E004FF0000102F0F7
S31520000CC029FD4FF00D004FF0000102F023FD4FF0FB
S31520000CD00C004FF0000102F01DFD43F6B050C2F2A9
S31520000CE000004FF0000102F0F7F843F65443C2F239
S31520000CF000031B7843F6B050C2F20000194602F0FA
S31520000D00B7F94FF00C004FF0010102F003FD43F656
S31520000D105443C2F200034FF002021A7043F65443C2
S31520000D20C2F200034FF002025A7043F65443C2F255
S31520000D3000034FF002029A7043F65443C2F20003B6
S31520000D404FF00202DA7043F65443C2F200034FF02A
S31520000D5002021A7143F65443C2F200031B7843F68B
S31520000D60B050C2F20000194602F082F90346DAB208
S31520000D7043F65443C2F200031A7043F65443C2F2B8
S31520000D8000035B7843F6B050C2F20000194602F029
S31520000D906FF90346DAB243F65443C2F200035A709F
S31520000DA043F65443C2F200039B7843F6B050C2F296
S31520000DB00000194602F05CF90346DAB243F65443C2
S31520000DC0C2F200039A7043F65443C2F20003DB7862
S31520000DD043F6B050C2F20000194602F049F9034624
S31520000DE0DAB243F65443C2F20003DA7043F65443B0
S31520000DF0C2F200031B7943F6B050C2F20000194636
S31520000E0002F036F90346DAB243F65443C2F200033F
S31520000E101A7143F6B050C2F200004FF0000102F002
S31520000E20DFF84FF00C004FF0000102F073FC4FF09A
S31520000E300E004FF0010102F06DFC4FF00E004FF056
S31520000E40000102F067FC4FF000037B604FF00303C4
S31520000E507B6000E17A6843F65443C2F200039B5C50
S31520000E6003F00F030F2B00F2F28001A252F823F0B9
S31520000E70B10E0020CB0E0020E50E0020FF0E002034
S31520000E80190F0020330F00204D0F0020670F002080
S31520000E90810F00209B0F0020B50F0020CF0F0020D0
S31520000EA0E90F0020031000201D100020371000201D
S31520000EB07B684FEA430303F1010243F65C43C2F227
S31520000EC000034FF030019954C1E07B684FEA430399
S31520000ED003F1010243F65C43C2F200034FF03101F5
S31520000EE09954B4E07B684FEA430303F1010243F6C9
S31520000EF05C43C2F200034FF032019954A7E07B68AD
S31520000F004FEA430303F1010243F65C43C2F20003B6
S31520000F104FF0330199549AE07B684FEA430303F17B
S31520000F20010243F65C43C2F200034FF034019954A8
S31520000F308DE07B684FEA430303F1010243F65C43ED
S31520000F40C2F200034FF03501995480E07B684FEAE6
S31520000F50430303F1010243F65C43C2F200034FF060
S31520000F603601995473E07B684FEA430303F101028B
S31520000F7043F65C43C2F200034FF03701995466E012
S31520000F807B684FEA430303F1010243F65C43C2F256
S31520000F9000034FF03801995459E07B684FEA430328
S31520000FA003F1010243F65C43C2F200034FF039011C
S31520000FB099544CE07B684FEA430303F1010243F660
S31520000FC05C43C2F200034FF0410199543FE07B6835
S31520000FD04FEA430303F1010243F65C43C2F20003E6
S31520000FE04FF04201995432E07B684FEA430303F104
S31520000FF0010243F65C43C2F200034FF043019954C9
S3152000100025E07B684FEA430303F1010243F65C4384
S31520001010C2F200034FF04401995418E07B684FEA6E
S31520001020430303F1010243F65C43C2F200034FF08F
S31520001030450199540BE07B684FEA430303F1010213
S3152000104043F65C43C2F200034FF0460199547B6895
S3152000105003F1FF337B607B68002BBFF6FBAE4FF0BE
S3152000106003037B60EDE07A6843F65443C2F2000343
S315200010709B5C03F0F003702B7DD0702B11DC302BA2
S315200010804DD0302B06DC102B33D0202B3CD0002B20
S3152000109024D0D2E0502B58D0602B61D0402B49D0A1
S315200010A0CBE0B02B00F09380B02B07DC902B78D0D0
S315200010B0A02B00F08180802B68D0BEE0D02B00F0E2
S315200010C09C80D02B03DCC02B00F08C80B5E0E02B7D
S315200010D000F09E80F02B00F0A680AEE07B684FEA01
S315200010E0430243F65C43C2F200034FF030019954A9
S315200010F0A3E07B684FEA430243F65C43C2F2000357
S315200011004FF03101995498E07B684FEA430243F649
S315200011105C43C2F200034FF0320199548DE07B68A4
S315200011204FEA430243F65C43C2F200034FF0330119
S31520001130995482E07B684FEA430243F65C43C2F24D
S3152000114000034FF03401995477E07B684FEA43025D
S3152000115043F65C43C2F200034FF0350199546CE02C
S315200011607B684FEA430243F65C43C2F200034FF02A
S315200011703601995461E07B684FEA430243F65C43AB
S31520001180C2F200034FF03701995456E07B684FEACC
S31520001190430243F65C43C2F200034FF038019954F0
S315200011A04BE07B684FEA430243F65C43C2F20003FE
S315200011B04FF03901995440E07B684FEA430243F6E9
S315200011C05C43C2F200034FF04101995435E07B683D
S315200011D04FEA430243F65C43C2F200034FF042015A
S315200011E099542AE07B684FEA430243F65C43C2F2F5
S315200011F000034FF0430199541FE07B684FEA4302F6
S3152000120043F65C43C2F200034FF04401995414E0C4
S315200012107B684FEA430243F65C43C2F200034FF079
S315200012204501995409E07B684FEA430243F65C4343
S31520001230C2F200034FF0460199547B6803F1FF3355
S315200012407B607B68002BBFF60EAF43F65C43C2F291
S3152000125000034FF00D021A7243F65C43C2F20003FC
S315200012604FF00A025A7243F68033C2F200031B681B
S31520001270184643F65C41C2F2000100F0EDFE07F18C
S315200012800807BD4680BD00BF80B586B002AF43F6D5
S315200012908033C2F200031B6818464FF4E1314FF049
S315200012A0030200F097FE43F68033C2F200031B6868
S315200012B0184641F6D551C2F200014FF0000200F067
S315200012C09FFF02F0B3F94FF000004FF0020102F049
S315200012D003FA4FF001004FF0020102F0FDF94FF042
S315200012E002004FF0020102F0F7F94FF003004FF031
S315200012F0020102F0F1F94FF004004FF0020102F072
S31520001300EBF94FF005004FF0020102F0E5F94FF03E
S3152000131006004FF0020102F0DFF94FF007004FF010
S31520001320020102F0D9F94FF008004FF0050102F052
S31520001330D3F94FF009004FF0050102F0CDF94FF037
S315200013400E004FF0050102F0C7F94FF00D004FF0E7
S31520001350050102F0C1F94FF00C004FF0050102F033
S31520001360BBF94FF00B004FF0050102F0B5F94FF035
S315200013700A004FF0050102F0AFF94FF00A004FF0D6
S31520001380000102F0C7F94FF00E004FF0010102F004
S31520001390C1F94FF00E004FF0000102F0BBF94FF0FB
S315200013A00E004FF0010102F0B5F94FF00E004FF09C
S315200013B0000102F0AFF94FF00E004FF0010102F0EC
S315200013C0A9F94FF00E004FF0000102F0A3F94FF0FB
S315200013D00A004FF0010102F09DF943F6B050C2F227
S315200013E0000001F087FB4FF00803009343F6B0504E
S315200013F0C2F200004FF000014FF000024FF0100340
S3152000140001F0C2FC4FF00D004FF0000102F082F90E
S315200014104FF00C004FF0000102F07CF94FF00B006A
S315200014204FF0010102F076F94FF00D004FF0010167
S3152000143002F070F943F65443C2F200034FF0020261
S315200014401A7043F65443C2F200034FF002025A7058
S3152000145043F65443C2F200034FF002029A7043F659
S315200014605443C2F200034FF00202DA7043F65443AB
S31520001470C2F200034FF002021A7143F6B050C2F2D4
S3152000148000004FF0000101F027FD43F65443C2F25D
S3152000149000031B7843F6B050C2F20000194601F053
S315200014A0E7FD0346DAB243F65443C2F200031A704C
S315200014B043F65443C2F200035B7843F6B050C2F2BF
S315200014C00000194601F0D4FD0346DAB243F6544330
S315200014D0C2F200035A7043F65443C2F200039B78CB
S315200014E043F6B050C2F20000194601F0C1FD034692
S315200014F0DAB243F65443C2F200039A7043F65443D9
S31520001500C2F20003DB7843F6B050C2F2000019465F
S3152000151001F0AEFD0346DAB243F65443C2F20003AD
S31520001520DA7043F65443C2F200031B7943F6B050F7
S31520001530C2F20000194601F09BFD0346DAB243F6DB
S315200015405443C2F200031A7143F6B050C2F20000AF
S315200015504FF0000101F044FD4FF00D004FF0000167
S3152000156002F0D8F8FFF78EF84FF00000FFF718F8D2
S3152000157043F66843C2F200031B681846FFF762F879
S3152000158043F66843C2F200031B681846FFF74AF881
S31520001590FFF768F800E000BF43F69243C2F200036B
S315200015A01B78012BF7D143F68432C2F2000207F1F1
S315200015B0080312681146198003F102034FEA12420A
S315200015C01A7043F68033C2F200031A6807F1080343
S315200015D01046194600F040FD43F69443C2F200033C
S315200015E01B78632B27D143F69443C2F200035B7822
S315200015F06C2B20D143F69443C2F200039B786F2BC9
S3152000160019D143F69443C2F20003DB78632B12D13F
S3152000161043F69443C2F200031B796B2B0BD14FF098
S315200016200E004FF0010102F075F84FF00E004FF05A
S31520001630000102F06FF843F69443C2F200031B78D0
S31520001640722B40F0518343F69443C2F200035B7839
S31520001650652B40F0498343F69443C2F200039B78FE
S31520001660672B40F0418343F69443C2F20003DB78B4
S315200016705F2B40F0398343F69443C2F200031B7973
S31520001680612B40F031834FF00003FB6028E3FB68B9
S31520001690002B15D14FF070033B704FF063037B7026
S315200016A04FF03D03BB704FF00003FB7043F68033D1
S315200016B0C2F200031A683B461046194600F0CCFCDD
S315200016C0FB68012B15D14FF061033B704FF074037B
S315200016D07B704FF03D03BB704FF00003FB7043F669
S315200016E08033C2F200031A683B461046194600F0C2
S315200016F0B3FCFB68022B15D14FF076033B704FF0FD
S3152000170030037B704FF03D03BB704FF00003FB703E
S3152000171043F68033C2F200031A683B461046194648
S3152000172000F09AFCFB68032B15D14FF076033B7033
S315200017304FF031037B704FF03D03BB704FF0000339
S31520001740FB7043F68033C2F200031A683B4610460C
S31520001750194600F081FCFB68042B15D14FF061037C
S315200017603B704FF030037B704FF03D03BB704FF062
S315200017700003FB7043F68033C2F200031A683B462F
S315200017801046194600F068FCFB68052B15D14FF072
S3152000179061033B704FF031037B704FF03D03BB700C
S315200017A04FF00003FB7043F68033C2F200031A6841
S315200017B03B461046194600F04FFCFB68062B15D118
S315200017C04FF061033B704FF032037B704FF03D03C7
S315200017D0BB704FF00003FB7043F68033C2F2000368
S315200017E01A683B461046194600F036FCFB68072B64
S315200017F015D14FF061033B704FF033037B704FF0F0
S315200018003D03BB704FF00003FB7043F68033C2F2FA
S3152000181000031A683B461046194600F01DFCFB687B
S31520001820082B15D14FF074033B704FF030037B70BB
S315200018304FF03D03BB704FF00003FB7043F680333F
S31520001840C2F200031A683B461046194600F004FC13
S31520001850FB68092B15D14FF074033B704FF0310311
S315200018607B704FF03D03BB704FF00003FB7043F6D7
S315200018708033C2F200031A683B461046194600F030
S31520001880EBFBFB680A2B15D14FF074033B704FF02E
S3152000189032037B704FF03D03BB704FF00003FB70AB
S315200018A043F68033C2F200031A683B4610461946B7
S315200018B000F0D2FBFB680B2B15D14FF074033B7065
S315200018C04FF033037B704FF03D03BB704FF00003A6
S315200018D0FB7043F68033C2F200031A683B4610467B
S315200018E0194600F0B9FBFB680C2B15D14FF0740399
S315200018F03B704FF034037B704FF03D03BB704FF0CD
S315200019000003FB7043F68033C2F200031A683B469D
S315200019101046194600F0A0FBFB680D2B15D14FF0A1
S3152000192074033B704FF035037B704FF03D03BB7063
S315200019304FF00003FB7043F68033C2F200031A68AF
S315200019403B461046194600F087FBFB680E2B15D147
S315200019504FF074033B704FF036037B704FF03D031E
S31520001960BB704FF00003FB7043F68033C2F20003D6
S315200019701A683B461046194600F06EFBFB680F2B93
S3152000198015D14FF074033B704FF037037B704FF047
S315200019903D03BB704FF00003FB7043F68033C2F269
S315200019A000031A683B461046194600F055FBFB68B3
S315200019B0102B15D14FF073033B704FF030037B7023
S315200019C04FF03D03BB704FF00003FB7043F68033AE
S315200019D0C2F200031A683B461046194600F03CFB4B
S315200019E0FB68112B15D14FF073033B704FF0310379
S315200019F07B704FF03D03BB704FF00003FB7043F646
S31520001A008033C2F200031A683B461046194600F09E
S31520001A1023FBFB68122B15D14FF073033B704FF05D
S31520001A2032037B704FF03D03BB704FF00003FB7019
S31520001A3043F68033C2F200031A683B461046194625
S31520001A4000F00AFBFB68132B15D14FF073033B7094
S31520001A504FF033037B704FF03D03BB704FF0000314
S31520001A60FB7043F68033C2F200031A683B461046E9
S31520001A70194600F0F1FAFB68142B15D14FF07303C9
S31520001A803B704FF034037B704FF03D03BB704FF03B
S31520001A900003FB7043F68033C2F200031A683B460C
S31520001AA01046194600F0D8FAFB68152B15D14FF0D1
S31520001AB073033B704FF035037B704FF03D03BB70D3
S31520001AC04FF00003FB7043F68033C2F200031A681E
S31520001AD03B461046194600F0BFFAFB68162B15D177
S31520001AE04FF073033B704FF036037B704FF03D038E
S31520001AF0BB704FF00003FB7043F68033C2F2000345
S31520001B001A683B461046194600F0A6FAFB68172BC2
S31520001B1015D14FF073033B704FF037037B704FF0B6
S31520001B203D03BB704FF00003FB7043F68033C2F2D7
S31520001B3000031A683B461046194600F08DFAFB68EA
S31520001B40182B15D14FF074033B704FF038037B7080
S31520001B504FF03D03BB704FF00003FB7043F680331C
S31520001B60C2F200031A683B461046194600F074FA82
S31520001B70FB68192B15D14FF074033B704FF03903D6
S31520001B807B704FF03D03BB704FF00003FB7043F6B4
S31520001B908033C2F200031A683B461046194600F00D
S31520001BA05BFAFB681A2B15D14FF06B033B704FF095
S31520001BB030037B704FF03D03BB704FF00003FB708A
S31520001BC043F68033C2F200031A683B461046194694
S31520001BD000F042FAFB681B2B15D14FF06B033B70CC
S31520001BE04FF031037B704FF03D03BB704FF0000385
S31520001BF0FB7043F68033C2F200031A683B46104658
S31520001C00194600F029FAFB681C2B15D14FF0670303
S31520001C103B704FF070037B704FF03D03BB704FF06D
S31520001C200003FB7043F68033C2F200031A683B467A
S31520001C301046194600F010FAFB681D2B15D14FF0FF
S31520001C4073033B704FF070037B704FF03D03BB7006
S31520001C504FF00003FB7043F68033C2F200031A688C
S31520001C603B461046194600F0F7F9FB681E2B15D1A6
S31520001C704FF066033B704FF070037B704FF03D03CF
S31520001C80BB704FF00003FB7043F68033C2F20003B3
S31520001C901A683B461046194600F0DEF9FB681F2BF2
S31520001CA015D14FF072033B704FF061037B704FF0FC
S31520001CB03D03BB704FF00003FB7043F68033C2F246
S31520001CC000031A683B461046194600F0C5F9FB6822
S31520001CD0DBB21846FEF7F4FCFB6803F10103FB6058
S31520001CE0FB681F2B7FF7D3AC43F69443C2F2000365
S31520001CF01B78722B4BD143F69443C2F200035B78D8
S31520001D00732B44D143F69443C2F200039B78742B81
S31520001D103DD143F69443C2F20003DB785F2B36D1E4
S31520001D2043F69443C2F200031B796E2B2FD14FF05A
S31520001D300A004FF0000101F0EDFC4FF00E004FF0CD
S31520001D40010101F0E7FC4FF00E004FF0000101F019
S31520001D50E1FC4FF00E004FF0010101F0DBFC4FF0EB
S31520001D600E004FF0000101F0D5FC4FF00E004FF0B1
S31520001D70010101F0CFFC4FF00E004FF0000101F001
S31520001D80C9FC4FF00A004FF0010101F0C3FC43F6F5
S31520001D909243C2F200034FF000021A7043F69143B9
S31520001DA0C2F200034FF000021A704FF00003FB60EE
S31520001DB00BE0FA6843F69443C2F200034FF00001A9
S31520001DC09954FB6803F10103FB60FB68132BF0DDDC
S31520001DD0FFF7E2BB80B582B000AF786043F691434F
S31520001DE0C2F200031B781A4643F69443C2F200035C
S31520001DF01344786819464FF0010200F093F943F630
S31520001E009243C2F200031B78002B45D143F691433F
S31520001E10C2F200031B781A4643F69443C2F200032B
S31520001E209B5C0D2B2FD043F68033C2F200031A6839
S31520001E3043F69143C2F200031B78194643F69443B6
S31520001E40C2F200030B441046194600F005F943F68A
S31520001E509143C2F200031B7803F10103DAB243F681
S31520001E609143C2F200031A7043F69143C2F2000373
S31520001E701B78132B0FD143F69143C2F200034FF088
S31520001E8000021A7008E043F69243C2F200034FF0B4
S31520001E9001021A7000E000BF07F10807BD4680BDA9
S31520001EA080B483B000AF0346FB714EF20013CEF22E
S31520001EB0000397F907204FEA5212F97901F01F0122
S31520001EC04FF0010000FA01F143F8221007F10C0748
S31520001ED0BD4680BC704700BF80B483B000AF0346C8
S31520001EE0FB714EF20013CEF2000397F907204FEA5A
S31520001EF05212F97901F01F014FF0010000FA01F1A9
S31520001F0002F1600243F8221007F10C07BD4680BC9F
S31520001F10704700BF80B483B000AF78600B46FB707B
S31520001F207B6803F070427B6823F07F4323F47003C1
S31520001F304FEA43131A44FB784FEA8303134403F111
S31520001F4000734FF001021A6007F10C07BD4680BCF2
S31520001F50704700BF80B483B000AF78600B46FB703B
S31520001F607B6803F070427B6823F07F4323F4700381
S31520001F704FEA43131A44FB784FEA8303134403F1D1
S31520001F8000734FF000021A6007F10C07BD4680BCB3
S31520001F90704700BF80B483B000AF78600B46FB70FB
S31520001FA07B6803F070427B6823F07F4323F4700341
S31520001FB04FEA43131A44FB784FEA8303134403F191
S31520001FC000731B68DBB2184607F10C07BD4680BCC0
S31520001FD0704700BF80B584B000AFF860B960134683
S31520001FE0FB71FA6843F6EC43C2F200039A4207D02B
S31520001FF0FA6843F6AC43C2F200039A4200D000BE10
S31520002000FB79F868B9681A4600F04AFAFB681B683B
S3152000201003F1300318464FF00301FFF79BFFFB68DF
S315200020201B6803F1340318464FF00201FFF792FFB5
S31520002030FB681B6803F1380318464FF00001FFF7D1
S3152000204089FFFA6842F63913C2F20003536207F198
S315200020501007BD4680BD00BF80B487B000AF786052
S3152000206039604FF00003FB607A6843F6EC43C2F216
S3152000207000039A4207D07A6843F6AC43C2F20003C3
S315200020809A4200D000BE3B68002B00D100BE7A6881
S3152000209043F6EC43C2F200039A4206D07A6843F62E
S315200020A0AC43C2F200039A4237D13B68002B34D0AE
S315200020B03A68FB6813441B78BB752BE07B681B686A
S315200020C01B7DFB757B685A7BFB7D42EA0303DAB2F4
S315200020D07B685A73FB7D03F02003002BEED04FF074
S315200020E000033B6110E07B681B68BA7D1A703B6970
S315200020F003F101033B61FB6803F10103FB603A68CE
S31520002100FB6813441B78BB75BB7D002B02D03B6953
S315200021100F2BE8D9BB7D002BD0D107F11C07BD467C
S3152000212080BC704780B487B000AFF860B9607A6031
S315200021304FF000033B614FF00003FB75FA6843F64E
S31520002140EC43C2F200039A4207D0FA6843F6AC4346
S31520002150C2F200039A4200D000BEBB68002B00D119
S3152000216000BE7B68002B00D100BEFA6843F6EC4324
S31520002170C2F200039A4206D0FA6843F6AC43C2F292
S3152000218000039A4234D1BB68002B31D07B68002BE8
S315200021902ED0FB681B681B7DFB75FB685A7BFB7D7D
S315200021A042EA0303DAB2FB685A7317E0BA683B695E
S315200021B01344FA6812681278D2B21A703B6903F196
S315200021C001033B61FB681B681B7DFB75FB685A7B23
S315200021D0FB7D42EA0303DAB2FB685A73FB7D03F008
S315200021E00103DBB2002B03D03A697B689A42DDD328
S315200021F03B69184607F11C07BD4680BC704700BFE7
S3152000220080B584B000AFF860B9601346FB71FA68F8
S3152000221043F6EC43C2F200039A4207D0FA6843F62B
S31520002220AC43C2F200039A4200D000BEBB68002B2A
S3152000223000D100BEFB79C02B00D900BEFA6843F658
S31520002240EC43C2F200039A4206D0FA6843F6AC4346
S31520002250C2F200039A422ED1BB68002B2BD0FB7909
S31520002260C02B28D8FB68BA681A62FB681A68FB6814
S315200022701B681B7ADBB2DBB203F03F03F879194601
S31520002280034641EA0303DBB2DBB21372FB681B7918
S315200022905BB21846FFF720FEFB681B6803F10403B8
S315200022A018464FF00001FFF735FEFB681B795BB23D
S315200022B01846FFF7F5FD07F11007BD4680BD00BFA4
S315200022C0684620F007018D4689B500AF43F6EC40FD
S315200022D0C2F2000000F01AFABD46BDE889408546E4
S315200022E0704700BF684620F007018D4689B500AFCC
S315200022F043F6AC40C2F2000000F008FABD46BDE845
S3152000230089408546704700BF80B588B000AF7860A9
S3152000231039607A6843F6EC43C2F200039A4207D04A
S315200023207A6843F6AC43C2F200039A4200D000BE5C
S315200023307A6843F6EC43C2F200039A4207D07A68E1
S3152000234043F6AC43C2F200039A4240F0A4807B6875
S315200023503A689A6001F02AFA7A6843F6EC43C2F2A8
S3152000236000039A4206D143F67043C2F200031B686B
S31520002370FB6105E043F67443C2F200031B68FB6170
S31520002380FB694FEAC3023B68B2FBF3F37B617B69CF
S315200023904FEA53033B613B694FEA9313FB60FB68AB
S315200023A04FEA83133A69C3EB0203BB61FB684FEA2A
S315200023B0C3137A69C3EB0202BB694FEA4303C3EB3B
S315200023C00203BA691344BB61FA684FF6FF739A4257
S315200023D000D900BEFA684FF6FF739A425BD8FB68B5
S315200023E0012B31D97B681B6803F10C0318464FF08B
S315200023F00701FFF78FFD7B681B68FA684FEA1222F8
S31520002400D2B21A717B681B68FA68D2B21A707B68DE
S315200024101B6803F10C0318464FF00701FFF79AFDDE
S315200024207B681B6803F1300318464FF00701FFF75E
S3152000243071FDBB69FF2B00D900BE7B681B68BA699A
S31520002440D2B283F83C2026E07B681B6803F10C039C
S3152000245018464FF00701FFF75DFD7B681B68FA6899
S315200024604FEA1222D2B21A717B681B68FA68D2B27E
S315200024701A707B681B6803F10C0318464FF007019E
S31520002480FFF768FD7B681B6803F1300318464FF0A1
S315200024900701FFF75FFD07F12007BD4680BD00BF9E
S315200024A080B584B000AFF860B9601346FB71FA6856
S315200024B043F6EC43C2F200039A4207D0FA6843F689
S315200024C0AC43C2F200039A4200D000BEFA6843F63B
S315200024D0EC43C2F200039A4224D1FB684FF08042BB
S315200024E01A60FB684FF00A021A7148F20003C4F220
S315200024F0030348F20002C4F20302926C42F0800207
S315200025009A644FF00A00FFF7E7FC48F20003C4F292
S31520002510030348F20002C4F20302926C22F0800206
S315200025209A6425E0FA6840F20003C4F201031360BE
S31520002530FB684FF00B021A7148F20003C4F2030342
S3152000254048F20002C4F20302926C42F480729A644A
S315200025504FF00B00FFF7C0FC48F20003C4F2030360
S3152000256048F20002C4F20302926C22F480729A644A
S31520002570FB681B684FF000021A71FB681B684FF05E
S3152000258000021A72FB681B6803F1080318464FF015
S315200025900101FFF7BFFCFB681B6803F1080318461F
S315200025A04FF00201FFF7B6FCFB681B6803F1080336
S315200025B018464FF00001FFF7ADFCFB681B6803F1DE
S315200025C0100318464FF00401FFF7C4FCFB681B6894
S315200025D003F1100318464FF00501FFF7BBFCFB681B
S315200025E01B6803F1340318464FF00101FFF7B2FCD4
S315200025F0FB681B6803F1340318464FF00001FFF710
S31520002600A9FCFB681B6803F1380318464FF001014B
S31520002610FFF7A0FCFB681B6803F1300318464FF058
S315200026200501FFF797FCFB681B6803F1300318468A
S315200026304FF00601FFF78EFCFB681B6803F13003A1
S3152000264018464FF00701FFF785FCFB681B6803F16E
S31520002650380318464FF00301FFF77CFCFB681B6824
S315200026604FF0000283F84420FB681B684FF00002FD
S3152000267083F84820FB681B684FF0000283F84C2043
S31520002680F868B968FFF740FEFB681B68FA791A7389
S31520002690FB68BA689A60FB68FA791A73FB684FF090
S315200026A000025A61FB684FF000021A61FB684FF086
S315200026B000029A61FB684FF000021A62FB684FF035
S315200026C000025A62FB684FF00002DA61FB684FF0A5
S315200026D000029A62FB684FF00002DA62FB684FF054
S315200026E000021A63FB684FF000025A63FB684FF042
S315200026F000029A63FB684FF00002DA63FB684FF032
S3152000270000025A7307F11007BD4680BD80B584B01C
S3152000271000AF78607A6843F6EC43C2F200039A422F
S3152000272007D07A6843F6AC43C2F200039A4200D03F
S3152000273000BE7A6843F6EC43C2F200039A4207D001
S315200027407A6843F6AC43C2F200039A4240F0EF8027
S315200027507B681B681B7ADBB203F00F03FB73FB7BE2
S315200027600C2B00F2D78001A252F823F0A1270020DB
S3152000277015290020BF27002019280020DD2700204A
S3152000278015290020FB2700201529002015290020C7
S31520002790152900201529002015290020DD270020D5
S315200027A07B689B6A002B00D100BE7B689B6A002B4E
S315200027B000F0B2807B689B6A78689847B7E07B68B0
S315200027C05B6A002B00D100BE7B685B6A002B00F0A1
S315200027D0A5807B685B6A78689847A8E07B681B6A57
S315200027E0002B00D100BE7B681B6A002B00F098806E
S315200027F07B681B6A7868984799E07B68DB69002BC1
S3152000280000D100BE7B68DB69002B00F08B807B68E3
S31520002810DB69786898478AE07B681B6803F12803A0
S3152000282018464FF00001FFF7B5FB0346002B0CD0EE
S315200028307B68DB6A002B00D100BE7B68DB6A002B3D
S3152000284003D07B68DB6A786898477B681B6803F14E
S31520002850280318464FF00101FFF79CFB0346002B87
S315200028600CD07B681B6B002B00D100BE7B681B6BDA
S31520002870002B03D07B681B6B786898477B681B68A6
S3152000288003F1280318464FF00201FFF783FB0346A6
S31520002890002B0CD07B685B6B002B00D100BE7B68C5
S315200028A05B6B002B03D07B685B6B786898477B68F3
S315200028B01B6803F1280318464FF00301FFF76AFB54
S315200028C00346002B0CD07B689B6B002B00D100BEEF
S315200028D07B689B6B002B03D07B689B6B7868984743
S315200028E07B681B6803F1280318464FF00401FFF7A5
S315200028F051FB0346002B17D07B68DB6B002B00D1E6
S3152000290000BE7B68DB6B002B10D07B68DB6B7868A6
S3152000291098470CE000BE0AE000BF08E000BF06E0D2
S3152000292000BF04E000BF02E000BF00E000BF07F1E7
S315200029301007BD4680BD00BF80B586B000AF786069
S315200029407A6843F6EC43C2F200039A4207D07A68CB
S3152000295043F6AC43C2F200039A4200D000BE7B6825
S315200029601B69002B00D100BE7B685B69002B00D160
S3152000297000BE7A6843F6EC43C2F200039A4206D0C0
S315200029807A6843F6AC43C2F200039A4255D17B687B
S315200029901B69002B51D07B685B69002B4DD07B686F
S315200029A01B681B7DFB727B685A7BFB7A42EA03031A
S315200029B0DAB27B685A73FB7A03F02003002B29D006
S315200029C04FF010033B617B685A697B689B69C3EBB8
S315200029D002037B617B690F2B01D87B693B614FF03A
S315200029E00003FB6012E07B681B687A6811697A68CD
S315200029F092690A4412781A707B689B6903F1010276
S31520002A007B689A61FB6803F10103FB60FA683B6906
S31520002A109A42E8D37B689A697B685B699A420CD1B3
S31520002A207B684FF000025A617B681B6803F1040340
S31520002A3018464FF00101FFF78DFA07F11807BD463A
S31520002A4080BD00BF80B483B000AF0346FB714EF259
S31520002A500013CEF2000397F907204FEA5212F979B4
S31520002A6001F01F014FF0010000FA01F143F8221096
S31520002A7007F10C07BD4680BC704700BF80B483B009
S31520002A8000AF0346FB714EF20013CEF2000397F916
S31520002A9007204FEA5212F97901F01F014FF0010089
S31520002AA000FA01F102F1200243F8221007F10C0787
S31520002AB0BD4680BC704700BF80B483B000AF0346DC
S31520002AC0FB714EF20013CEF2000397F907204FEA6E
S31520002AD05212F97901F01F014FF0010000FA01F1BD
S31520002AE002F1600243F8221007F10C07BD4680BCB4
S31520002AF0704700BF80B584B000AF78607A6843F62F
S31520002B00B053C2F200039A4207D07A6843F62C5398
S31520002B10C2F200039A4200D000BE7B681B795BB2EA
S31520002B201846FFF7ABFF78684FF000014FF084029C
S31520002B3000F0BCFF7B684FF001025A624FF00003A1
S31520002B40FB810DE0FB897A6803F106034FEAC30394
S31520002B5013444FF0FF325A60FB8903F10103FB81D6
S31520002B60FB89072BEED97A6843F6B053C2F20003ED
S31520002B709A4226D17A6841F20003C4F20003136018
S31520002B807B684FF002021A7148F20003C4F2030375
S31520002B9048F20002C4F20302926C42F400729A6474
S31520002BA04FF00200FFF788FF48F20003C4F2030348
S31520002BB048F20002C4F20302926C22F400729A6474
S31520002BC025E07A6841F20003C4F2010313607B68B2
S31520002BD04FF003021A7148F20003C4F2030348F2CD
S31520002BE00002C4F20302926C42F480629A644FF0AF
S31520002BF00300FFF761FF48F20003C4F2030348F223
S31520002C000002C4F20302926C22F480629A647B680A
S31520002C101B687A681268126822F000421A6007F16F
S31520002C201007BD4680BD00BF80B58AB000AF786072
S31520002C307B681B681B68FB607B681B689B693B6124
S31520002C407B681B685B687B617B681B689B6ABB61D2
S31520002C507B681B681B6BFB617B681B685B6B3B623D
S31520002C607B681B68DB697B627A6843F6B053C2F2E5
S31520002C7000039A422ED17A6841F20003C4F200037F
S31520002C8013607B684FF002021A7148F20003C4F207
S31520002C90030348F20002C4F20302926C42F400726B
S31520002CA09A644FF00200FFF707FF48F20003C4F2D0
S31520002CB0030348F20002C4F20302926C22F400726B
S31520002CC09A647B681B687A681268126822F0004250
S31520002CD01A602DE07A6841F20003C4F20103136002
S31520002CE07B684FF003021A7148F20003C4F2030313
S31520002CF048F20002C4F20302926C42F480629A64A3
S31520002D004FF00300FFF7D8FE48F20003C4F2030396
S31520002D1048F20002C4F20302926C22F480629A64A2
S31520002D207B681B687A681268126822F000421A6073
S31520002D30FB6823F00103FB607B681B68FA681A6056
S31520002D407B681B683A699A617B681B687A695A6056
S31520002D507B681B687A681268126842F001021A6062
S31520002D607B681B68BA699A627B681B68FA691A6372
S31520002D707B681B683A6A5A637B681B687A6ADA61E1
S31520002D8007F12807BD4680BD80B586B000AFF86044
S31520002D907A603B600B46FB72FA6843F6B053C2F288
S31520002DA000039A4207D0FA6843F62C53C2F2000376
S31520002DB09A4200D000BEFB7A072B00D900BE97F8B6
S31520002DC02030202B00D900BE3B68012B00D800BE46
S31520002DD03B68B3F5007F00D900BE3B6803F00103D2
S31520002DE0002B00D000BEFB681B795BB21846FFF7AC
S31520002DF045FEFB684FF0000283F88020FB681B68C5
S31520002E00FA681268126822F001021A60FB681B68D1
S31520002E10FA681268126842F002021A60FB681B68A0
S31520002E20FA681268126842F001021A60FB7A072BD0
S31520002E3047D87B68002B0BD07B68B3F1007F07D087
S31520002E407B68B3F1807F03D07B68B3F1407F0FD1DD
S31520002E50FA7A796840F20213C3F2004341EA030387
S31520002E60F96802F106024FEAC2020A4453600EE0F4
S31520002E70FA7A796840F20213C3F2000341EA0303A7
S31520002E80F96802F106024FEAC2020A445360FB7A4D
S31520002E90FA6803F106034FEAC303134497F8202088
S31520002EA01A723B684FEA530303F1FF337B61FB7AC7
S31520002EB07A69D2B2F96803F106034FEAC3030B44D9
S31520002EC05A72FB681B795BB21846FFF7BBFD07F108
S31520002ED01807BD4680BD00BF80B584B000AF7860BE
S31520002EE00B46FB707A6843F6B053C2F200039A424F
S31520002EF007D07A6843F62C53C2F200039A4200D0D8
S31520002F0000BE7B681B681B6803F00203002B00D100
S31520002F1000BEFB787A6803F106034FEAC303134425
S31520002F205B68B3F1FF3F00D100BE7B681B795BB2C3
S31520002F301846FFF7A3FD7B681B689B6803F0040314
S31520002F40FB60FB68002B02D07868FFF76DFE7B687C
S31520002F501B687A681268126822F001021A607B6880
S31520002F601A68FB78796803F106034FEAC3030B441A
S31520002F705B6813607B681A68FB78796803F106033F
S31520002F804FEAC3030B445B7A93617B681A68FB782C
S31520002F90796803F106034FEAC3030B441B7A536097
S31520002FA07B681B687A681268126842F001021A6010
S31520002FB07B681B687A681268D169FA784FF001003D
S31520002FC000FA02F241EA0202DA617B681B795BB2FF
S31520002FD01846FFF737FD07F11007BD4680BD00BF35
S31520002FE080B584B000AF78600B46FB707A6843F6F4
S31520002FF0B053C2F200039A4207D07A6843F62C53A4
S31520003000C2F200039A4200D000BE7B681B681B6890
S3152000301003F00203002B00D100BE7B681B795BB254
S315200030201846FFF72BFD7B681B689B6803F004039B
S31520003030FB60FB68002B02D07868FFF7F5FD7B6804
S315200030401B687A681268D169FA784FF0010000FA95
S3152000305002F26FEA020201EA0202DA617B681B7958
S315200030605BB21846FFF7EEFC07F11007BD4680BDA0
S3152000307080B485B000AF786039607A6843F6B05383
S31520003080C2F200039A4207D07A6843F62C53C2F262
S3152000309000039A4200D000BE7B681B681B6803F0C1
S315200030A00203002B00D100BE7B681A687B681B6870
S315200030B0196840F2FF03CFF6007301EA030343F4D5
S315200030C0807313607B681B687A681268D26A42F044
S315200030D00C02DA627B681B683A685A617B681B6857
S315200030E09B6803F00103FB6005E07B681B689B6817
S315200030F003F00103FB60FB68002BF6D07B681B689E
S315200031009B6803F00203BB6005E07B681B689B6835
S3152000311003F00203BB60BB68002BF6D07B681B68FC
S315200031201B69184607F11407BD4680BC704700BFCF
S3152000313080B485B000AF78604FF00003FB600EE0EE
S315200031407B681B687A6891687A6812690A441278E3
S315200031505A617B681B6903F101027B681A617B68EF
S315200031601B689B6803F48073002B05D17B681A6962
S315200031707B68DB689A42E3D37B681A697B68DB68E5
S315200031809A421CD30EE07B681B687A6851697A687C
S31520003190D2690A4412785A617B68DB6903F101021D
S315200031A07B68DA617B681B689B6803F48073002B5D
S315200031B005D17B68DA697B689B699A42E3D37B6891
S315200031C05B6A002B1FD07B681A697B68DB689A4292
S315200031D019D37B68DA697B689B699A4213D308E026
S315200031E07B681B684FF000025A61FB6803F10103FC
S315200031F0FB607B681B689B6803F48073002B02D1FD
S31520003200FB681F2BECD907F11407BD4680BC70471D
S3152000321080B584B000AF78607B6893F88030022B4D
S3152000322015D10CE07B681B681B69FB607B685B6FB4
S31520003230002B04D07B685B6FFA68104698477B6842
S315200032401B689B6803F04003002BEBD032E07B68C1
S3152000325093F88030012B25D117E07B681B681B690A
S31520003260FB607B681A6B7B68DB6A9A4207D27B68B5
S315200032709A6A7B681B6B1344FA68D2B21A707B6811
S315200032801B6B03F101027B681A637B681B689B68D2
S3152000329003F04003002BE0D00CE07B681B681B6921
S315200032A0FB6000E000BF7B681B689B6803F040035F
S315200032B0002BF2D007F11007BD4680BD80B586B041
S315200032C000AF78607B681B6803F120033B617A6856
S315200032D043F6B053C2F200039A4207D07A6843F607
S315200032E02C53C2F200039A4200D000BE3B691B68F1
S315200032F003F00203002B52D07B6893F88030022B18
S3152000330015D10CE07B681B681B69FB607B685B6FD3
S31520003310002B04D07B685B6FFA68104698477B6861
S315200033201B689B6803F04003002BEBD032E07B68E0
S3152000333093F88030012B25D117E07B681B681B6929
S31520003340FB607B681A6B7B68DB6A9A4207D27B68D4
S315200033509A6A7B681B6B1344FA68D2B21A707B6830
S315200033601B6B03F101027B681A637B681B689B68F1
S3152000337003F04003002BE0D00CE07B681B681B6940
S31520003380FB6000E000BF7B681B689B6803F040037E
S31520003390002BF2D07B681B684FF00202DA603B6993
S315200033A01B6803F00103DBB2002B12D07B6893F875
S315200033B08030022B05D17B681B687A68926F5A6130
S315200033C002E07868FFF7B4FE7B681B684FF00102C5
S315200033D0DA603B691B6803F01003002B23D0786862
S315200033E0FFF716FF7B681B6A002B0BD07B681B6AD6
S315200033F07A68916A7A68126B084611469847786807
S31520003400FFF796FE7B684FF001025A627B681B68C5
S315200034107A681268926A22F010029A627B681B68A8
S315200034204FF01002DA603B691B6803F00403002B9F
S315200034300FD07B681B687A681268D26A42F0040251
S31520003440DA627868FFF7F0FB7B681B684FF00402AE
S31520003450DA603B691B6803F00803002B31D07B68D8
S315200034601B687A681268D26A42F00802DA627B68C0
S3152000347093F88030022B13D17B681A687B681B680F
S31520003480196840F2FF03CFF6007301EA030343F401
S31520003490807313607B681B687A68926F5A610BE0B1
S315200034A07B6893F88030012B06D17B684FF00002B1
S315200034B01A617868FFF73CFE7B681B684FF00802AC
S315200034C0DA603B691B6803F02003002B49D078683B
S315200034D0FFF79EFE7B681B6B7B617B681B6A002B5C
S315200034E01CD07B684FF000025A627B684FF00002C6
S315200034F05A617B684FF000029A617B684FF00002A8
S31520003500DA617B681B684FF01002DA607B681B6803
S315200035107A681268926A42F010029A627B684FF0CB
S3152000352000021A617B681B687A681268D26A42F0C8
S315200035300C02DA627868FFF7FBFD7B684FF0000229
S315200035401A637B68DB6F002B06D07B68DB6F7A689B
S31520003550926A1046796998477B681B684FF020026B
S31520003560DA6007F11807BD4680BD00BF684620F027
S3152000357007018D4689B500AF43F6B050C2F2000070
S31520003580FFF79CFEBD46BDE889408546704700BFD3
S31520003590684620F007018D4689B500AF43F62C50CA
S315200035A0C2F20000FFF78AFEBD46BDE88940854687
S315200035B0704700BF80B483B000AF0346FB714EF264
S315200035C00013CEF2000397F907204FEA5212F97939
S315200035D001F01F014FF0010000FA01F102F1200273
S315200035E043F8221007F10C07BD4680BC704700BF88
S315200035F080B483B000AF0346FB714EF20013CEF2C7
S31520003600000397F907204FEA5212F97901F01F01BA
S315200036104FF0010000FA01F102F1600243F8221096
S3152000362007F10C07BD4680BC704700BF80B582B04D
S3152000363000AF48F20003C4F2030348F20002C4F2CA
S315200036400302926C42F480129A6448F20003C4F298
S31520003650030348F20002C4F20302926C42F0F072B5
S315200036609A644FF000037B6017E07A6843F60843BC
S31520003670C2F200039B5C5BB21846FFF79BFF7A6899
S3152000368043F60843C2F200039B5C5BB21846FFF781
S31520003690AFFF7B6803F101037B607B681F2BE4D9B6
S315200036A048F20003C4F2030348F20002C4F2030204
S315200036B0926C22F0F0729A6448F20003C4F203037B
S315200036C048F20002C4F20302926C22F480129A6439
S315200036D007F10807BD4680BD80B485B000AF03461C
S315200036E03960FB71FB79FB60FB681F2B00D900BE9C
S315200036F0FB681F2B08D8FA6843F68833C2F200030A
S3152000370053F822303A681A6007F11407BD4680BC88
S31520003710704700BF80B485B000AF02460B46FA71F1
S31520003720BB71FB79FB60FB681F2B00D900BEFB68D1
S315200037301F2B22D843F20003C4F20103D3F88830AA
S31520003740BB60FB684FF0010202FA03F36FEA030342
S31520003750BA6802EA0303BB60BB7903F00102FB6887
S3152000376002FA03F3BA6842EA0303BB6043F200039A
S31520003770C4F20103BA68C3F8882007F11407BD46CE
S3152000378080BC704780B500AF00F036F94EF6005386
S31520003790CEF200034EF60052CEF20002526942F4F7
S315200037A000725A61FCF746FE80BD00BF80B588B026
S315200037B000AF48F20003C4F20303D3F8983003F0B5
S315200037C08063FB60FB68002B40F08B8048F200038F
S315200037D0C4F20303D3F8983003F480537B617B69EA
S315200037E0002B3FD143F66C43C2F200034EF2001287
S315200037F0C0F2F5521A6043F67043C2F200034EF24D
S315200038000012C0F2F5521A6043F67443C2F2000366
S315200038104EF20012C0F2F5521A6043F67843C2F215
S31520003820000347F64002C0F27D121A6043F67C433D
S31520003830C2F200034EF20012C0F2F5521A6043F6AD
S315200038408043C2F200034EF20012C0F2F5521A6013
S3152000385043F68443C2F200034EF20012C0F2F55240
S315200038601A6045E043F62843C2F2000307F104023A
S3152000387093E8030082E8030048F20003C4F203033E
S31520003880D3F89C304FEA931303F00703BB61BB695F
S3152000389007F12002134413F81C3CFB77FB7F012B16
S315200038A00BD0022B0ED0002B14D100F025F80346A6
S315200038B03B61386900F042F81AE04FF4004000F00E
S315200038C03DF815E044F24020C0F20F0000F036F833
S315200038D000BF0DE044F24020C0F20F0000F02EF8A9
S315200038E006E000F009F803463B61386900F026F847
S315200038F007F12007BD4680BD80B483B000AF48F2F3
S315200039000003C4F20303D3F8503103F004033B60F1
S315200039103B68002B05D147F64003C0F27D137B6040
S3152000392004E04FF28003C0F2FA237B607B681846DE
S3152000393007F10C07BD4680BC704700BF80B483B03A
S3152000394000AF786043F66C43C2F200037A681A60CF
S3152000395043F67043C2F200037A681A6043F6744352
S31520003960C2F200037A681A6043F67843C2F2000373
S3152000397047F64002C0F27D121A6043F67C43C2F23B
S3152000398000037A681A6043F68043C2F200037A681D
S315200039901A6043F68443C2F200037A681A6007F17C
S315200039A00C07BD4680BC704780B483B000AF48F298
S315200039B00003C4F20303D3F84C317B607A684FF6D8
S315200039C002039A4206D04FF60203C0F201039A423E
S315200039D004D007E04FF001033B6006E04FF00203FE
S315200039E03B6002E04FF000033B603B68184607F15E
S315200039F00C07BD4680BC704780B582B000AFFFF78C
S31520003A00D3FF03467B607B68012B01D100F004F8CD
S31520003A1007F10807BD4680BD80B400AF48F2000319
S31520003A20C4F2030348F20002C4F20302D2F898203B
S31520003A3042F48072C3F8982048F20003C4F20303CC
S31520003A4048F20002C4F20302D2F8982022F08062E3
S31520003A50C3F89820BD4680BC704700BF70B543F6BA
S31520003A60484643F64845C2F20006C2F20005761BD8
S31520003A70B61006D0002455F8243001349847A642C3
S31520003A80F9D843F6484543F64C46C2F20005C2F241
S31520003A900006761B00F0CCF8B61006D0002455F8A8
S31520003AA0243001349847A642F9D870BD032AC9B2FA
S31520003AB030B407D822B10023C15401339342FBD13D
S31520003AC030BC704700EB020C034601E003F8011CF2
S31520003AD003F003041A460133002CF7D14FF00133CB
S31520003AE0C2EB0C0403FB01F31FE042F8403C42F812
S31520003AF03C3C42F8383C42F8343C42F8303C42F8F0
S31520003B002C3C42F8283C42F8243C42F8203C42F81F
S31520003B101C3C42F8183C42F8143C42F8103C42F84F
S31520003B200C3C42F8083C42F8043C154640323F2CF7
S31520003B30A4F14004D9DC2A46C5EB0C0407E042F880
S31520003B40103C42F80C3C42F8083C42F8043C15462E
S31520003B5010320F2CA4F11004F1DC2A46C5EB0C051B
S31520003B6001E042F8043C14460432032DA5F1040575
S31520003B70F7DC01E004F8011B6445FBD3A0E700BF96
S31520003B80EC3C00200D0A00000030014004300140CA
S31520003B90083001400C300140103001401430014003
S31520003BA0183001401C3001402030014024300140B3
S31520003BB0283001402C300140303001403430014063
S31520003BC0383001403C300140403001404430014013
S31520003BD0483001404C3001405030014054300140C3
S31520003BE0583001405C300140603001406430014073
S31520003BF0683001406C300140703001407430014023
S31520003C00783001407C30014032333435363738390C
S31520003C103A3B3C3D3E3F4041424344454647484966
S31520003C204A4B4C4D4E4F50510001000102020303F6
S31520003C30F8B500BFF8BC08BC9E467047F8B500BF73
S31520003C40F8BC08BC9E467047D5040020C10400205D
S31520003C5000000000020202020200000048656C6CAF
S31520003C606F576F726C6400001B06000000E1F505BB
S31520003C7000E1F50500E1F50540787D0100E1F50557
S31520003C8000E1F50500E1F505000000000000000058
S7052000019148
