:020000042000DA
:1000000000000120910100207F03002081030020D7
:1000100083030020850300208703002000000000E8
:100020000000000000000000000000008903002024
:100030008B030020000000008D0300208F030020B0
:100040009103002093030020812A0020A52A00208C
:10005000990300209B0300209D0300209F030020A4
:10006000A1030020A30300202D1A0020511A002014
:10007000A9030020AB030020AD030020AF03002044
:10008000B1030020B3030020B5030020B703002014
:10009000B9030020BB030020BD030020BF030020E4
:1000A000C1030020C3030020C5030020C7030020B4
:1000B000C9030020CB030020CD030020CF03002084
:1000C000D1030020D3030020D5030020D703002054
:1000D000D9030020DB030020DD030020DF03002024
:1000E000E1030020E3030020E5030020E7030020F4
:1000F000E9030020EB030020ED030020EF030020C4
:10010000F1030020F3030020F5030020F703002093
:10011000F9030020FB030020FD030020FF03002063
:10012000010400200304002005040020070400202F
:10013000090400200B0400200D0400200F040020FF
:1001400011040020130400201504002017040020CF
:10015000190400201B0400201D0400201F0400209F
:10016000210400202304002025040020270400206F
:10017000290400202B0400202D0400202F0400203F
:1001800031040020330400200000000000000000C3
:100190004FF0000BDFF8BE020068DFF8B612096806
:1001A00001F0030100F01C00142801D14BF0020BF8
:1001B000002901D04BF0010BBBF1000F05D0A7487F
:1001C000A749DFF8722200F09FF8A64880470BF09D
:1001D000020ABAF1000F0CD0DFF86E02DFF86E12DF
:1001E00002680B680FB44FF000024FF0FF0302608B
:1001F0000B609D489D4A9E4B022808D1DFF83E12B5
:100200000A60DFF842120A60DFF836120B6001283C
:1002100008D1DFF82E120A60DFF82A120A60DFF830
:100220001E120B609348002809D193489349944AC1
:1002300000F032F893489449944A00F02DF894481D
:100240009449954A00F028F894489549DFF8E6214A
:1002500000F05AF8BBF1000F12D092489249DFF833
:10026000DA2100F051F80BF0020ABAF1000F07D0C2
:100270000FBC02600B6000BFAFF30080AFF30080E3
:10028000DFF828020FF2030E00474FF000004FF096
:100290000001DFF81CF2FEE72DE9F841884225D085
:1002A000B2EB010200D5FEE740EA010313F00303BD
:1002B00002D000F01DF819E04FF000039046121133
:1002C000F7D09A421CBFF0C8F0C103F10103F8D186
:1002D00008F00F08B8F1000F08D004780C7000F196
:1002E000010001F10101B8F10108F6D1BDE8F88182
:1002F00008B54FF0000303780B7000F1010001F125
:100300000101013AF7D108BD884237D000F0030659
:10031000002E14D04FF00405A5EB06044FF008079B
:1003200007FB06F8914669FA08F9002C07D080F817
:10033000009069FA07F900F10100013CF5E74FF080
:1003400000060F46091A88460911914614461546BB
:10035000B14206D018BFA0E8340206F10106B1424E
:10036000F8D108F00F08B8F1000F07D002704FEA7B
:10037000322200F10100B8F10108F4E77047FEE70E
:10038000FEE7FEE7FEE7FEE7FEE7FEE7FEE7FEE745
:10039000FEE7FEE7FEE7FEE7FEE7FEE7FEE7FEE735
:1003A000FEE7FEE7FEE7FEE7FEE7FEE7FEE7FEE725
:1003B000FEE7FEE7FEE7FEE7FEE7FEE7FEE7FEE715
:1003C000FEE7FEE7FEE7FEE7FEE7FEE7FEE7FEE705
:1003D000FEE7FEE7FEE7FEE7FEE7FEE7FEE7FEE7F5
:1003E000FEE7FEE7FEE7FEE7FEE7FEE7FEE7FEE7E5
:1003F000FEE7FEE7FEE7FEE7FEE7FEE7FEE7FEE7D5
:10040000FEE7FEE7FEE7FEE7FEE7FEE7FEE7FEE7C4
:10041000FEE7FEE7FEE7FEE7FEE7FEE7FEE7FEE7B4
:10042000FEE7FEE7FEE7FEE7FEE7FEE7FEE7FEE7A4
:10043000FEE7FEE7704700000000A2A2A2A2008033
:100440000340088003401080034030800340348024
:1004500003403880034018080240000000F00020EC
:1004600000000120992C0020000000000000000086
:10047000010000000000000000000020000000203B
:1004800090010020C0040020C00400206031002042
:100490006031002060310020A0310020A031002018
:1004A000303300203033002000F00020712F002076
:1004B0000D0E0020AFF30080AFF30080AFF300809B
:1004C00043F2A013C2F200031A780AB9012018708F
:1004D000704700BF43F26010C2F2000008B5036825
:1004E0002BB140F20003C0F2000303B1984708BDEE
:1004F00080B400AF43F20003C4F20103D3F88430A8
:100500001846BD4680BC704780B584B000AF024637
:100510000B46FA71BB714FF00B004FF0000102F077
:1005200083FB4FF00003FB73FB795BB2002B06DB10
:100530004FF00D004FF0000102F076FB05E04FF0A8
:100540000D004FF0010102F06FFBFFF7D1FF0346F2
:100550004FEAD333DBB24FEAC313DAB2FB7B42EA92
:100560000303FB734FF00C004FF0010102F05CFB42
:100570004FF00C004FF0000102F056FBFB794FEA00
:100580009313DBB203F00103002B06D14FF00D00F3
:100590004FF0000102F048FB05E04FF00D004FF076
:1005A000010102F041FBFFF7A3FF03464FEAD333FB
:1005B000DBB203F001034FEA8313DAB2FB7B42EABA
:1005C0000303FB734FF00C004FF0010102F02CFB12
:1005D0004FF00C004FF0000102F026FBFB794FEAD0
:1005E0005313DBB203F00103002B06D14FF00D00D3
:1005F0004FF0000102F018FB05E04FF00D004FF046
:10060000010102F011FBFFF773FF03464FEAD333FA
:10061000DBB203F001034FEA4313DAB2FB7B42EA99
:100620000303FB734FF00C004FF0010102F0FCFAE2
:100630004FF00C004FF0000102F0F6FAFB794FEAA0
:100640001313DBB203F00103002B06D14FF00D00B2
:100650004FF0000102F0E8FA05E04FF00D004FF016
:10066000010102F0E1FAFFF743FF03464FEAD333FB
:10067000DBB203F001034FEA0313DAB2FB7B42EA79
:100680000303FB734FF00C004FF0010102F0CCFAB2
:100690004FF00C004FF0000102F0C6FAFB794FEA70
:1006A000D303DBB203F00103002B06D14FF00D00A2
:1006B0004FF0000102F0B8FA05E04FF00D004FF0E6
:1006C000010102F0B1FAFFF713FF03464FEAD333FB
:1006D000DBB203F001034FEAC303DAB2FB7B42EA69
:1006E0000303FB734FF00C004FF0010102F09CFA82
:1006F0004FF00C004FF0000102F096FAFB794FEA40
:100700009303DBB203F00103002B06D14FF00D0081
:100710004FF0000102F088FA05E04FF00D004FF0B5
:10072000010102F081FAFFF7E3FE03464FEAD333FB
:10073000DBB203F001034FEA8303DAB2FB7B42EA48
:100740000303FB734FF00C004FF0010102F06CFA51
:100750004FF00C004FF0000102F066FAFB794FEA0F
:100760005303DBB203F00103002B06D14FF00D0061
:100770004FF0000102F058FA05E04FF00D004FF085
:10078000010102F051FAFFF7B3FE03464FEAD333FB
:10079000DBB203F001034FEA4303DAB2FB7B42EA28
:1007A0000303FB734FF00C004FF0010102F03CFA21
:1007B0004FF00C004FF0000102F036FAFB7903F025
:1007C0000103002B06D14FF00D004FF0000102F0A5
:1007D0002BFA05E04FF00D004FF0010102F024FA72
:1007E000FFF786FE03464FEAD333DBB203F0010383
:1007F000FA7B43EA0203FB73BB79002B06D04FF070
:100800000B004FF0010102F00FFA05E04FF00B0072
:100810004FF0000102F008FA4FF00C004FF0010118
:1008200002F002FA4FF00C004FF0000102F0FCF968
:10083000FB7B184607F11007BD4680BD80B584B02C
:1008400000AF78604FF00003FB604FF00303FB60E4
:10085000FFE0FA687B6813441B7803F00F030F2B4B
:1008600000F2F38001A252F823F000BFAD0800208F
:10087000C7080020E1080020FB080020150900201F
:100880002F09002049090020630900207D0900206C
:1008900097090020B1090020CB090020E5090020BC
:1008A000FF090020190A0020330A0020FB684FEAE4
:1008B000430303F1010243F26C13C2F200034FF051
:1008C00030019954C1E0FB684FEA430303F1010290
:1008D00043F26C13C2F200034FF031019954B4E0BB
:1008E000FB684FEA430303F1010243F26C13C2F2C7
:1008F00000034FF032019954A7E0FB684FEA43032D
:1009000003F1010243F26C13C2F200034FF0330112
:1009100099549AE0FB684FEA430303F1010243F262
:100920006C13C2F200034FF0340199548DE0FB6860
:100930004FEA430303F1010243F26C13C2F20003D6
:100940004FF03501995480E0FB684FEA430303F10F
:10095000010243F26C13C2F200034FF036019954C6
:1009600073E0FB684FEA430303F1010243F26C13A7
:10097000C2F200034FF03701995466E0FB684FEA7A
:10098000430303F1010243F26C13C2F200034FF080
:100990003801995459E0FB684FEA430303F101021F
:1009A00043F26C13C2F200034FF0390199544CE04A
:1009B000FB684FEA430303F1010243F26C13C2F2F6
:1009C00000034FF0410199543FE0FB684FEA4303B5
:1009D00003F1010243F26C13C2F200034FF0420133
:1009E000995432E0FB684FEA430303F1010243F2FA
:1009F0006C13C2F200034FF04301995425E0FB68E9
:100A00004FEA430303F1010243F26C13C2F2000305
:100A10004FF04401995418E0FB684FEA430303F197
:100A2000010243F26C13C2F200034FF045019954E6
:100A30000BE0FB684FEA430303F1010243F26C133E
:100A4000C2F200034FF046019954FB6803F1FF33F3
:100A5000FB60FB68002BBFF6FCAE4FF00303FB60AE
:100A6000EBE0FA687B6813441B7803F0F003702B0B
:100A70007DD0702B11DC302B4DD0302B06DC102BB1
:100A800033D0202B3CD0002B24D0D2E0502B58D098
:100A9000602B61D0402B49D0CBE0B02B00F093808D
:100AA000B02B07DC902B78D0A02B00F08180802B1E
:100AB00068D0BEE0D02B00F09C80D02B03DCC02B94
:100AC00000F08C80B5E0E02B00F09E80F02B00F071
:100AD000A680AEE0FB684FEA430243F26C13C2F219
:100AE00000034FF030019954A3E0FB684FEA430242
:100AF00043F26C13C2F200034FF03101995498E0B5
:100B0000FB684FEA430243F26C13C2F200034FF05A
:100B1000320199548DE0FB684FEA430243F26C13B3
:100B2000C2F200034FF03301995482E0FB684FEAB0
:100B3000430243F26C13C2F200034FF034019954A4
:100B400077E0FB684FEA430243F26C13C2F2000302
:100B50004FF0350199546CE0FB684FEA430243F2D1
:100B60006C13C2F200034FF03601995461E0FB6848
:100B70004FEA430243F26C13C2F200034FF0370115
:100B8000995456E0FB684FEA430243F26C13C2F2F9
:100B900000034FF0380199544BE0FB684FEA4302E1
:100BA00043F26C13C2F200034FF03901995440E054
:100BB000FB684FEA430243F26C13C2F200034FF0AA
:100BC0004101995435E0FB684FEA430243F26C134C
:100BD000C2F200034FF0420199542AE0FB684FEA49
:100BE000430243F26C13C2F200034FF043019954E5
:100BF0001FE0FB684FEA430243F26C13C2F20003AA
:100C00004FF04401995414E0FB684FEA430243F269
:100C10006C13C2F200034FF04501995409E0FB68E0
:100C20004FEA430243F26C13C2F200034FF0460155
:100C30009954FB6803F1FF33FB60FB68002BBFF6A0
:100C400010AF43F26C13C2F200034FF00D021A72A0
:100C500043F26C13C2F200034FF00A025A7243F2DD
:100C60009403C2F200031B68184643F26C11C2F2EF
:100C7000000100F075FE07F11007BD4680BD00BF02
:100C800090B583B000AF03463960FB714FF00B00A5
:100C90004FF0000101F0C8FF4FF00C004FF00101D0
:100CA00001F0C2FF4FF00C004FF0000101F0BCFF5B
:100CB0004FF00C004FF0010101F0B6FF4FF00C00B7
:100CC0004FF0000101F0B0FFFB7918464FF0010131
:100CD000FFF71AFC4FF00C004FF0010101F0A4FFE8
:100CE0004FF00C004FF0000101F09EFF4FF00C00A0
:100CF0004FF0010101F098FF4FF00C004FF00001A0
:100D000001F092FF4FF00B004FF0000101F08CFF5B
:100D10004FF00C004FF0010101F086FF4FF00C0086
:100D20004FF0000101F080FF4FF00C004FF0010187
:100D300001F07AFF4FF00C004FF0000101F074FF5A
:100D40004FF000004FF00001FFF7DEFB03461A46AC
:100D50003B681A703B6803F101044FF000004FF04C
:100D60000001FFF7D1FB034623703B6803F1020447
:100D70004FF000004FF00001FFF7C6FB0346237061
:100D80003B6803F103044FF000004FF00101FFF74F
:100D9000BBFB034623704FF00C004FF0010101F044
:100DA00043FF4FF00C004FF0000101F03DFF4FF00A
:100DB0000C004FF0010101F037FF4FF00C004FF035
:100DC000000101F031FF4FF00B004FF0000101F086
:100DD0002BFF4FF00C004FF0010101F025FF4FF009
:100DE0000C004FF0000101F01FFF4FF00C004FF01E
:100DF000010101F019FF4FF00C004FF0000101F06C
:100E000013FF07F10C07BD4690BD00BF80B58AB047
:100E100002AF43F29403C2F200031B6818464FF47A
:100E2000E1314FF0030200F059FD01F089FE4FF06F
:100E300000004FF0020101F0D9FE4FF001004FF029
:100E4000020101F0D3FE4FF002004FF0020101F069
:100E5000CDFE4FF003004FF0020101F0C7FE4FF04E
:100E600004004FF0020101F0C1FE4FF005004FF009
:100E7000020101F0BBFE4FF006004FF0020101F04D
:100E8000B5FE4FF007004FF0020101F0AFFE4FF04A
:100E900008004FF0050101F0A9FE4FF009004FF0E6
:100EA000050101F0A3FE4FF00E004FF0050101F027
:100EB0009DFE4FF00B004FF0050101F097FE4FF043
:100EC0000D004FF0050101F091FE4FF00C004FF0C6
:100ED000050101F08BFE4FF00F004FF0020101F011
:100EE00085FE4FF010004FF0050101F07FFE4FF03E
:100EF0000A004FF0050101F079FE4FF00A004FF0B3
:100F0000000101F091FE4FF00E004FF0010101F0E1
:100F10008BFE4FF00E004FF0000101F085FE4FF008
:100F20000E004FF0010101F07FFE4FF00E004FF078
:100F3000000101F079FE4FF00E004FF0010101F0C9
:100F400073FE4FF00E004FF0000101F06DFE4FF008
:100F50000A004FF0010101F067FE43F2A820C2F23F
:100F6000000001F07DF94FF00803009343F2A82040
:100F7000C2F200004FF000014FF000024FF01003EA
:100F800001F0B8FA4FF00B004FF0010101F04CFEF8
:100F90004FF010004FF0000101F046FE4FF010003E
:100FA0004FF0010101F040FE4FF00B004FF0000147
:100FB00001F03AFE4FF00C004FF0010101F034FE59
:100FC0004FF00C004FF0000101F02EFE4FF00C002E
:100FD0004FF0010101F028FE4FF00C004FF000012E
:100FE00001F022FE4FF00B004FF0010101F01CFE5A
:100FF0004FF00C004FF0010101F016FE4FF00C0015
:101000004FF0000101F010FE4FF00C004FF0010115
:1010100001F00AFE4FF00C004FF0000101F004FE59
:101020004FF00B004FF0000101F0FEFD4FF00C00FF
:101030004FF0010101F0F8FD4FF00C004FF00001FE
:1010400001F0F2FD4FF00C004FF0010101F0ECFD5A
:101050004FF00C004FF0000101F0E6FD4FF00C00E6
:101060004FF0010101F0E0FD4FF00C004FF00001E6
:1010700001F0DAFD4FF001004FF00001FFF744FAF4
:1010800003461A4643F26413C2F200031A704FF08B
:1010900001004FF00101FFF737FA03461A4643F209
:1010A0006413C2F200031A704FF00C004FF00101FC
:1010B00001F0BAFD4FF00C004FF0000101F0B4FD5B
:1010C0004FF00C004FF0010101F0AEFD4FF00C00AD
:1010D0004FF0000101F0A8FD4FF00B004FF00001B0
:1010E00001F0A2FD4FF00C004FF0010101F09CFD5A
:1010F0004FF00C004FF0000101F096FD4FF00C0096
:101100004FF0010101F090FD4FF00C004FF0000195
:1011100001F08AFD4FF00003FB6150E3FB69002BF7
:1011200016D14FF070033B744FF063037B744FF0A4
:101130003D03BB744FF00003FB7443F29403C2F20F
:1011400000031A6807F110031046194600F008FC66
:10115000FB69012B16D14FF061033B744FF0740310
:101160007B744FF03D03BB744FF00003FB7443F2FC
:101170009403C2F200031A6807F1100310461946DF
:1011800000F0EEFBFB69022B16D14FF076033B74A7
:101190004FF030037B744FF03D03BB744FF00003FE
:1011A000FB7443F29403C2F200031A6807F11003C0
:1011B0001046194600F0D4FBFB69032B16D14FF003
:1011C00076033B744FF031037B744FF03D03BB74E7
:1011D0004FF00003FB7443F29403C2F200031A6859
:1011E00007F110031046194600F0BAFBFB69042B07
:1011F00016D14FF061033B744FF030037B744FF016
:101200003D03BB744FF00003FB7443F29403C2F23E
:1012100000031A6807F110031046194600F0A0FBFE
:10122000FB69052B16D14FF061033B744FF031037E
:101230007B744FF03D03BB744FF00003FB7443F22B
:101240009403C2F200031A6807F11003104619460E
:1012500000F086FBFB69062B16D14FF061033B744F
:101260004FF032037B744FF03D03BB744FF000032B
:10127000FB7443F29403C2F200031A6807F11003EF
:101280001046194600F06CFBFB69072B16D14FF096
:1012900061033B744FF033037B744FF03D03BB7429
:1012A0004FF00003FB7443F29403C2F200031A6888
:1012B00007F110031046194600F052FBFB69082B9A
:1012C00016D14FF074033B744FF030037B744FF032
:1012D0003D03BB744FF00003FB7443F29403C2F26E
:1012E00000031A6807F110031046194600F038FB96
:1012F000FB69092B16D14FF074033B744FF0310397
:101300007B744FF03D03BB744FF00003FB7443F25A
:101310009403C2F200031A6807F11003104619463D
:1013200000F01EFBFB690A2B16D14FF074033B74CF
:101330004FF032037B744FF03D03BB744FF000035A
:10134000FB7443F29403C2F200031A6807F110031E
:101350001046194600F004FBFB690B2B16D14FF029
:1013600074033B744FF033037B744FF03D03BB7445
:101370004FF00003FB7443F29403C2F200031A68B7
:1013800007F110031046194600F0EAFAFB690C2B2E
:1013900016D14FF074033B744FF034037B744FF05D
:1013A0003D03BB744FF00003FB7443F29403C2F29D
:1013B00000031A6807F110031046194600F0D0FA2E
:1013C000FB690D2B16D14FF074033B744FF03503BE
:1013D0007B744FF03D03BB744FF00003FB7443F28A
:1013E0009403C2F200031A6807F11003104619466D
:1013F00000F0B6FAFB690E2B16D14FF074033B7464
:101400004FF036037B744FF03D03BB744FF0000385
:10141000FB7443F29403C2F200031A6807F110034D
:101420001046194600F09CFAFB690F2B16D14FF0BD
:1014300074033B744FF037037B744FF03D03BB7470
:101440004FF00003FB7443F29403C2F200031A68E6
:1014500007F110031046194600F082FAFB69102BC1
:1014600016D14FF073033B744FF030037B744FF091
:101470003D03BB744FF00003FB7443F29403C2F2CC
:1014800000031A6807F110031046194600F068FAC5
:10149000FB69112B16D14FF073033B744FF03103EE
:1014A0007B744FF03D03BB744FF00003FB7443F2B9
:1014B0009403C2F200031A6807F11003104619469C
:1014C00000F04EFAFB69122B16D14FF073033B74F8
:1014D0004FF032037B744FF03D03BB744FF00003B9
:1014E000FB7443F29403C2F200031A6807F110037D
:1014F0001046194600F034FAFB69132B16D14FF051
:1015000073033B744FF033037B744FF03D03BB74A4
:101510004FF00003FB7443F29403C2F200031A6815
:1015200007F110031046194600F01AFAFB69142B54
:1015300016D14FF073033B744FF034037B744FF0BC
:101540003D03BB744FF00003FB7443F29403C2F2FB
:1015500000031A6807F110031046194600F000FA5C
:10156000FB69152B16D14FF073033B744FF0350315
:101570007B744FF03D03BB744FF00003FB7443F2E8
:101580009403C2F200031A6807F1100310461946CB
:1015900000F0E6F9FB69162B16D14FF073033B748C
:1015A0004FF036037B744FF03D03BB744FF00003E4
:1015B000FB7443F29403C2F200031A6807F11003AC
:1015C0001046194600F0CCF9FB69172B16D14FF0E5
:1015D00073033B744FF037037B744FF03D03BB74D0
:1015E0004FF00003FB7443F29403C2F200031A6845
:1015F00007F110031046194600F0B2F9FB69182BE9
:1016000016D14FF074033B744FF038037B744FF0E6
:101610003D03BB744FF00003FB7443F29403C2F22A
:1016200000031A6807F110031046194600F098F9F4
:10163000FB69192B16D14FF074033B744FF039033B
:101640007B744FF03D03BB744FF00003FB7443F217
:101650009403C2F200031A6807F1100310461946FA
:1016600000F07EF9FB691A2B16D14FF06B033B7427
:101670004FF030037B744FF03D03BB744FF0000319
:10168000FB7443F29403C2F200031A6807F11003DB
:101690001046194600F064F9FB691B2B16D14FF078
:1016A0006B033B744FF031037B744FF03D03BB740D
:1016B0004FF00003FB7443F29403C2F200031A6874
:1016C00007F110031046194600F04AF9FB691C2B7C
:1016D00016D14FF067033B744FF070037B744FF0EB
:1016E0003D03BB744FF00003FB7443F29403C2F25A
:1016F00000031A6807F110031046194600F030F98C
:10170000FB691D2B16D14FF073033B744FF0700330
:101710007B744FF03D03BB744FF00003FB7443F246
:101720009403C2F200031A6807F110031046194629
:1017300000F016F9FB691E2B16D14FF066033B74BF
:101740004FF070037B744FF03D03BB744FF0000308
:10175000FB7443F29403C2F200031A6807F110030A
:101760001046194600F0FCF8FB691F2B16D14FF00C
:1017700072033B744FF061037B744FF03D03BB7405
:101780004FF00003FB7443F29403C2F200031A68A3
:1017900007F110031046194600F0E2F8FB69DAB2CF
:1017A00007F1180310461946FFF76AFA07F1180304
:1017B0001846FFF743F8FB6903F10103FB61FB697E
:1017C0001F2B7FF7ABAC4FF00E004FF0010101F083
:1017D0002BFA4FF00E004FF0000101F025FA99E4CA
:1017E00080B483B000AF0346FB714EF20013CEF21B
:1017F000000397F907204FEA5212F97901F01F010F
:101800004FF0010000FA01F102F1600243F82210EA
:1018100007F10C07BD4680BC704700BF80B483B0A1
:1018200000AF78600B46FB707B6803F070427B680A
:1018300023F07F4323F470034FEA43131A44FB78E9
:101840004FEA8303134403F100734FF001021A605F
:1018500007F10C07BD4680BC704700BF80B483B061
:1018600000AF78600B46FB707B6803F070427B68CA
:1018700023F07F4323F470034FEA43131A44FB78A9
:101880004FEA8303134403F100734FF000021A6020
:1018900007F10C07BD4680BC704700BF80B483B021
:1018A00000AF78600B46FB707B6803F070427B688A
:1018B00023F07F4323F470034FEA43131A44FB7869
:1018C0004FEA8303134403F100731B68DBB218462D
:1018D00007F10C07BD4680BC704700BF80B584B0DF
:1018E00000AFF860B9601346FB71FA6843F2E41385
:1018F000C2F200039A4207D0FA6843F2A413C2F27C
:1019000000039A4200D000BEFB79F868B9681A4615
:1019100000F07CF9FB681B6803F1300318464FF0B8
:101920000301FFF79BFFFB681B6803F134031846B4
:101930004FF00201FFF792FFFB681B6803F13803C9
:1019400018464FF00001FFF789FFFA6842F2A5033D
:10195000C2F20003536207F11007BD4680BD00BF0D
:1019600080B487B000AF786039604FF00003FB604F
:101970007A6843F2E413C2F200039A4207D07A680D
:1019800043F2A413C2F200039A4200D000BE3B68A7
:10199000002B00D100BE7A6843F2E413C2F20003C8
:1019A0009A4206D07A6843F2A413C2F200039A4224
:1019B00037D13B68002B34D03A68FB6813441B785E
:1019C000BB752BE07B681B681B7DFB757B685A7BB6
:1019D000FB7D42EA0303DAB27B685A73FB7D03F0B6
:1019E0002003002BEED04FF000033B6110E07B683A
:1019F0001B68BA7D1A703B6903F101033B61FB6808
:101A000003F10103FB603A68FB6813441B78BB7564
:101A1000BB7D002B02D03B690F2BE8D9BB7D002B8F
:101A2000D0D107F11C07BD4680BC7047684620F046
:101A300007018D4689B500AF43F2E410C2F2000001
:101A400000F01AFABD46BDE889408546704700BFE0
:101A5000684620F007018D4689B500AF43F2A41017
:101A6000C2F2000000F008FABD46BDE88940854694
:101A7000704700BF80B588B000AF786039607A6881
:101A800043F2E413C2F200039A4207D07A6843F2A9
:101A9000A413C2F200039A4200D000BE7A6843F257
:101AA000E413C2F200039A4207D07A6843F2A41307
:101AB000C2F200039A4240F0A4807B683A689A60C0
:101AC00001F0FEF87A6843F2E413C2F200039A428E
:101AD00006D143F27C13C2F200031B68FB6105E0F0
:101AE00043F28013C2F200031B68FB61FB694FEAFB
:101AF000C3023B68B2FBF3F37B617B694FEA53039C
:101B00003B613B694FEA9313FB60FB684FEA831329
:101B10003A69C3EB0203BB61FB684FEAC3137A69FE
:101B2000C3EB0202BB694FEA4303C3EB0203BA698A
:101B30001344BB61FA684FF6FF739A4200D900BEA6
:101B4000FA684FF6FF739A425BD8FB68012B31D9D4
:101B50007B681B6803F10C0318464FF00701FFF781
:101B60005DFE7B681B68FA684FEA1222D2B21A71D6
:101B70007B681B68FA68D2B21A707B681B6803F135
:101B80000C0318464FF00701FFF768FE7B681B68DF
:101B900003F1300318464FF00701FFF73FFEBB6922
:101BA000FF2B00D900BE7B681B68BA69D2B283F8EC
:101BB0003C2026E07B681B6803F10C0318464FF0BD
:101BC0000701FFF72BFE7B681B68FA684FEA1222B9
:101BD000D2B21A717B681B68FA68D2B21A707B683D
:101BE0001B6803F10C0318464FF00701FFF736FEA0
:101BF0007B681B6803F1300318464FF00701FFF7BD
:101C00002DFE07F12007BD4680BD00BF80B584B022
:101C100000AFF860B9601346FB71FA6843F2E41351
:101C2000C2F200039A4207D0FA6843F2A413C2F248
:101C300000039A4200D000BEFA6843F2E413C2F2F5
:101C400000039A4224D1FB684FF080421A60FB687F
:101C50004FF00A021A7148F20003C4F2030348F27B
:101C60000002C4F20302926C42F080029A644FF0C8
:101C70000A00FFF7B5FD48F20003C4F2030348F27F
:101C80000002C4F20302926C22F080029A6425E002
:101C9000FA6840F20003C4F201031360FB684FF0DE
:101CA0000B021A7148F20003C4F2030348F2000267
:101CB000C4F20302926C42F480729A644FF00B00FB
:101CC000FFF78EFD48F20003C4F2030348F200025E
:101CD000C4F20302926C22F480729A64FB681B685F
:101CE0004FF000021A71FB681B684FF000021A7275
:101CF000FB681B6803F1080318464FF00101FFF76A
:101D00008DFDFB681B6803F1080318464FF00201C4
:101D1000FFF784FDFB681B6803F1080318464FF0CA
:101D20000001FFF77BFDFB681B6803F110031846F9
:101D30004FF00401FFF792FDFB681B6803F11003ED
:101D400018464FF00501FFF789FDFB681B6803F19A
:101D5000340318464FF00101FFF780FDFB681B6854
:101D600003F1340318464FF00001FFF777FDFB68DD
:101D70001B6803F1380318464FF00101FFF76EFDB1
:101D8000FB681B6803F1300318464FF00501FFF7AD
:101D900065FDFB681B6803F1300318464FF0060130
:101DA000FFF75CFDFB681B6803F1300318464FF03A
:101DB0000701FFF753FDFB681B6803F13803184662
:101DC0004FF00301FFF74AFDFB681B684FF000026C
:101DD00083F84420FB681B684FF0000283F848201A
:101DE000FB681B684FF0000283F84C20F868B96864
:101DF000FFF740FEFB681B68FA791A73FB68BA6844
:101E00009A60FB68FA791A73FB684FF000025A6116
:101E1000FB684FF000021A61FB684FF000029A6104
:101E2000FB684FF000021A62FB684FF000025A6232
:101E3000FB684FF00002DA61FB684FF000029A6223
:101E4000FB684FF00002DA62FB684FF000021A6391
:101E5000FB684FF000025A63FB684FF000029A6380
:101E6000FB684FF00002DA63FB684FF000025A7320
:101E700007F11007BD4680BD80B584B000AF786023
:101E80007A6843F2E413C2F200039A4207D07A68F8
:101E900043F2A413C2F200039A4200D000BE7A6853
:101EA00043F2E413C2F200039A4207D07A6843F285
:101EB000A413C2F200039A4240F0EF807B681B68D3
:101EC0001B7ADBB203F00F03FB73FB7B0C2B00F2DE
:101ED000D78001A252F823F00D1F0020812000209E
:101EE0002B1F0020851F0020491F0020812000207B
:101EF000671F0020812000208120002081200020F9
:101F00008120002081200020491F00207B689B6ADF
:101F1000002B00D100BE7B689B6A002B00F0B280D2
:101F20007B689B6A78689847B7E07B685B6A002BA0
:101F300000D100BE7B685B6A002B00F0A5807B6847
:101F40005B6A78689847A8E07B681B6A002B00D121
:101F500000BE7B681B6A002B00F098807B681B6AC0
:101F60007868984799E07B68DB69002B00D100BE58
:101F70007B68DB69002B00F08B807B68DB6978680D
:101F800098478AE07B681B6803F1280318464FF0E6
:101F90000001FFF783FC0346002B0CD07B68DB6A53
:101FA000002B00D100BE7B68DB6A002B03D07B686E
:101FB000DB6A786898477B681B6803F1280318463A
:101FC0004FF00101FFF76AFC0346002B0CD07B6841
:101FD0001B6B002B00D100BE7B681B6B002B03D05A
:101FE0007B681B6B786898477B681B6803F1280344
:101FF00018464FF00201FFF751FC0346002B0CD0AE
:102000007B685B6B002B00D100BE7B685B6B002B99
:1020100003D07B685B6B786898477B681B6803F12B
:10202000280318464FF00301FFF738FC0346002B46
:102030000CD07B689B6B002B00D100BE7B689B6B38
:10204000002B03D07B689B6B786898477B681B6884
:1020500003F1280318464FF00401FFF71FFC034665
:10206000002B17D07B68DB6B002B00D100BE7B6898
:10207000DB6B002B10D07B68DB6B786898470CE03B
:1020800000BE0AE000BF08E000BF06E000BF04E0B9
:1020900000BF02E000BF00E000BF07F11007BD462F
:1020A00080BD00BF80B586B000AF78607A6843F22B
:1020B000E413C2F200039A4207D07A6843F2A413F1
:1020C000C2F200039A4200D000BE7B681B69002B5D
:1020D00000D100BE7B685B69002B00D100BE7A682E
:1020E00043F2E413C2F200039A4206D07A6843F244
:1020F000A413C2F200039A4255D17B681B69002BDE
:1021000051D07B685B69002B4DD07B681B681B7DC1
:10211000FB727B685A7BFB7A42EA0303DAB27B6884
:102120005A73FB7A03F02003002B29D04FF01003E1
:102130003B617B685A697B689B69C3EB02037B61E7
:102140007B690F2B01D87B693B614FF00003FB607B
:1021500012E07B681B687A6811697A6892690A44A0
:1021600012781A707B689B6903F101027B689A619F
:10217000FB6803F10103FB60FA683B699A42E8D30C
:102180007B689A697B685B699A420CD17B684FF0E7
:1021900000025A617B681B6803F1040318464FF084
:1021A0000101FFF75BFB07F11807BD4680BD00BFCB
:1021B00080B483B000AF0346FB714EF20013CEF241
:1021C000000397F907204FEA5212F97901F01F0135
:1021D0004FF0010000FA01F143F8221007F10C075B
:1021E000BD4680BC704700BF80B483B000AF0346DB
:1021F000FB714EF20013CEF2000397F907204FEA6D
:102200005212F97901F01F014FF0010000FA01F1BB
:1022100002F1200243F8221007F10C07BD4680BCF2
:10222000704700BF80B483B000AF0346FB714EF22D
:102230000013CEF2000397F907204FEA5212F97902
:1022400001F01F014FF0010000FA01F102F16002FC
:1022500043F8221007F10C07BD4680BC704700BF51
:1022600080B584B000AF78607A6843F2A823C2F2E8
:1022700000039A4207D07A6843F22423C2F2000393
:102280009A4200D000BE7B681B795BB21846FFF70C
:10229000ABFF78684FF000014FF0840200F090FE31
:1022A0007B684FF001025A624FF00003FB810DE0A2
:1022B000FB897A6803F106034FEAC30313444FF026
:1022C000FF325A60FB8903F10103FB81FB89072B75
:1022D000EED97A6843F2A823C2F200039A4226D1CB
:1022E0007A6841F20003C4F2000313607B684FF088
:1022F00002021A7148F20003C4F2030348F200021A
:10230000C4F20302926C42F400729A644FF002002D
:10231000FFF788FF48F20003C4F2030348F200020B
:10232000C4F20302926C22F400729A6425E07A6887
:1023300041F20003C4F2010313607B684FF0030213
:102340001A7148F20003C4F2030348F20002C4F217
:102350000302926C42F480629A644FF00300FFF72C
:1023600061FF48F20003C4F2030348F20002C4F222
:102370000302926C22F480629A647B681B687A681C
:102380001268126822F000421A6007F11007BD4679
:1023900080BD00BF80B58AB000AF78607B681B68E5
:1023A0001B68FB607B681B689B693B617B681B68E3
:1023B0005B687B617B681B689B6ABB617B681B6891
:1023C0001B6BFB617B681B685B6B3B627B681B68FC
:1023D000DB697B627A6843F2A823C2F200039A4267
:1023E0002ED17A6841F20003C4F2000313607B68C7
:1023F0004FF002021A7148F20003C4F2030348F2DC
:102400000002C4F20302926C42F400729A644FF02C
:102410000200FFF707FF48F20003C4F2030348F28B
:102420000002C4F20302926C22F400729A647B6888
:102430001B687A681268126822F000421A602DE068
:102440007A6841F20003C4F2010313607B684FF025
:1024500003021A7148F20003C4F2030348F20002B7
:10246000C4F20302926C42F480629A644FF003005B
:10247000FFF7D8FE48F20003C4F2030348F200025B
:10248000C4F20302926C22F480629A647B681B6837
:102490007A681268126822F000421A60FB6823F022
:1024A0000103FB607B681B68FA681A607B681B6825
:1024B0003A699A617B681B687A695A607B681B6815
:1024C0007A681268126842F001021A607B681B6821
:1024D000BA699A627B681B68FA691A637B681B6831
:1024E0003A6A5A637B681B687A6ADA6107F12807DF
:1024F000BD4680BD80B586B000AFF8607A603B60B5
:102500000B46FB72FA6843F2A823C2F200039A4218
:1025100007D0FA6843F22423C2F200039A4200D0A3
:1025200000BEFB7A072B00D900BE97F82030202B85
:1025300000D900BE3B68012B00D800BE3B68B3F554
:10254000007F00D900BE3B6803F00103002B00D0E0
:1025500000BEFB681B795BB21846FFF745FEFB68BF
:102560004FF0000283F88020FB681B68FA6812684D
:10257000126822F001021A60FB681B68FA68126890
:10258000126842F002021A60FB681B68FA6812685F
:10259000126842F001021A60FB7A072B47D87B6869
:1025A000002B0BD07B68B3F1007F07D07B68B3F1C1
:1025B000807F03D07B68B3F1407F0FD1FA7A7968CE
:1025C00040F20213C3F2004341EA0303F96802F147
:1025D00006024FEAC2020A4453600EE0FA7A7968B2
:1025E00040F20213C3F2000341EA0303F96802F167
:1025F00006024FEAC2020A445360FB7AFA6803F10A
:1026000006034FEAC303134497F820201A723B686D
:102610004FEA530303F1FF337B61FB7A7A69D2B24D
:10262000F96803F106034FEAC3030B445A72FB68CF
:102630001B795BB21846FFF7BBFD07F11807BD46D3
:1026400080BD00BF80B485B000AF78604FF000035C
:10265000FB600EE07B681B687A6891687A68126993
:102660000A4412785A617B681B6903F101027B6896
:102670001A617B681B689B6803F48073002B05D18B
:102680007B681A697B68DB689A42E3D37B681A69C6
:102690007B68DB689A421CD30EE07B681B687A6813
:1026A00051697A68D2690A4412785A617B68DB6999
:1026B00003F101027B68DA617B681B689B6803F4A5
:1026C0008073002B05D17B68DA697B689B699A422D
:1026D000E3D37B685B6A002B1FD07B681A697B6839
:1026E000DB689A4219D37B68DA697B689B699A42F6
:1026F00013D308E07B681B684FF000025A61FB6847
:1027000003F10103FB607B681B689B6803F4807323
:10271000002B02D1FB681F2BECD907F11407BD4633
:1027200080BC704780B584B000AF78607B6893F858
:102730008030022B15D10CE07B681B681B69FB60A5
:102740007B685B6F002B04D07B685B6FFA68104678
:1027500098477B681B689B6803F04003002BEBD015
:1027600032E07B6893F88030012B25D117E07B683D
:102770001B681B69FB607B681A6B7B68DB6A9A428B
:1027800007D27B689A6A7B681B6B1344FA68D2B2E3
:102790001A707B681B6B03F101027B681A637B680C
:1027A0001B689B6803F04003002BE0D00CE07B68C3
:1027B0001B681B69FB6000E000BF7B681B689B68AF
:1027C00003F04003002BF2D007F11007BD4680BD97
:1027D00080B586B000AF78607B681B6803F120038A
:1027E0003B617A6843F2A823C2F200039A4207D001
:1027F0007A6843F22423C2F200039A4200D000BE5A
:102800003B691B6803F00203002B52D07B6893F8EE
:102810008030022B15D10CE07B681B681B69FB60C4
:102820007B685B6F002B04D07B685B6FFA68104697
:1028300098477B681B689B6803F04003002BEBD034
:1028400032E07B6893F88030012B25D117E07B685C
:102850001B681B69FB607B681A6B7B68DB6A9A42AA
:1028600007D27B689A6A7B681B6B1344FA68D2B202
:102870001A707B681B6B03F101027B681A637B682B
:102880001B689B6803F04003002BE0D00CE07B68E2
:102890001B681B69FB6000E000BF7B681B689B68CE
:1028A00003F04003002BF2D07B681B684FF002025C
:1028B000DA603B691B6803F00103DBB2002B12D026
:1028C0007B6893F88030022B05D17B681B687A689F
:1028D000926F5A6102E07868FFF7B4FE7B681B686C
:1028E0004FF00102DA603B691B6803F01003002B14
:1028F00023D07868FFF716FF7B681B6A002B0BD08C
:102900007B681B6A7A68916A7A68126B084611467E
:1029100098477868FFF796FE7B684FF001025A628D
:102920007B681B687A681268926A22F010029A62C9
:102930007B681B684FF01002DA603B691B6803F08C
:102940000403002B0FD07B681B687A681268D26A78
:1029500042F00402DA627868FFF71CFD7B681B68AE
:102960004FF00402DA603B691B6803F00803002B98
:1029700031D07B681B687A681268D26A42F008021C
:10298000DA627B6893F88030022B13D17B681A6877
:102990007B681B68196840F2FF03CFF6007301EAF9
:1029A000030343F4807313607B681B687A68926F3B
:1029B0005A610BE07B6893F88030012B06D17B686D
:1029C0004FF000021A617868FFF73CFE7B681B68D5
:1029D0004FF00802DA603B691B6803F02003002B0C
:1029E00049D07868FFF79EFE7B681B6B7B617B6834
:1029F0001B6A002B1CD07B684FF000025A627B6878
:102A00004FF000025A617B684FF000029A617B68C8
:102A10004FF00002DA617B681B684FF01002DA6049
:102A20007B681B687A681268926A42F010029A62A8
:102A30007B684FF000021A617B681B687A68126835
:102A4000D26A42F00C02DA627868FFF7FBFD7B681D
:102A50004FF000021A637B68DB6F002B06D07B68A7
:102A6000DB6F7A68926A1046796998477B681B68C1
:102A70004FF02002DA6007F11807BD4680BD00BFA5
:102A8000684620F007018D4689B500AF43F2A820C3
:102A9000C2F20000FFF79CFEBD46BDE889408546B6
:102AA000704700BF684620F007018D4689B500AF2A
:102AB00043F22420C2F20000FFF78AFEBD46BDE8C3
:102AC00089408546704700BF80B483B000AF03469D
:102AD000FB714EF20013CEF2000397F907204FEA84
:102AE0005212F97901F01F014FF0010000FA01F1D3
:102AF00002F1200243F8221007F10C07BD4680BC0A
:102B0000704700BF80B483B000AF0346FB714EF244
:102B10000013CEF2000397F907204FEA5212F97919
:102B200001F01F014FF0010000FA01F102F1600213
:102B300043F8221007F10C07BD4680BC704700BF68
:102B400080B582B000AF48F20003C4F2030348F23C
:102B50000002C4F20302926C42F480129A6448F2BA
:102B60000003C4F2030348F20002C4F20302926CB1
:102B700042F0F0729A644FF000037B6017E07A68CD
:102B800043F21813C2F200039B5C5BB21846FFF7D6
:102B90009BFF7A6843F21813C2F200039B5C5BB29E
:102BA0001846FFF7AFFF7B6803F101037B607B688A
:102BB0001F2BE4D948F20003C4F2030348F20002D9
:102BC000C4F20302926C22F0F0729A6448F200039D
:102BD000C4F2030348F20002C4F20302926C22F42E
:102BE00080129A6407F10807BD4680BD80B485B0A5
:102BF00000AF03463960FB71FB79FB60FB681F2B5C
:102C000000D900BEFB681F2B08D8FA6843F298036E
:102C1000C2F2000353F822303A681A6007F1140731
:102C2000BD4680BC704700BF80B485B000AF02468F
:102C30000B46FA71BB71FB79FB60FB681F2B00D957
:102C400000BEFB681F2B22D843F20003C4F201032D
:102C5000D3F88830BB60FB684FF0010202FA03F33F
:102C60006FEA0303BA6802EA0303BB60BB7903F0AF
:102C70000102FB6802FA03F3BA6842EA0303BB608D
:102C800043F20003C4F20103BA68C3F8882007F1D5
:102C90001407BD4680BC704780B500AF00F036F920
:102CA0004EF60053CEF200034EF60052CEF2000272
:102CB000526942F400725A61FDF7BCFB80BD00BF4F
:102CC00080B588B000AF48F20003C4F20303D3F824
:102CD000983003F08063FB60FB68002B40F08B8032
:102CE00048F20003C4F20303D3F8983003F480538E
:102CF0007B617B69002B3FD143F27813C2F2000362
:102D00004EF20012C0F2F5521A6043F27C13C2F286
:102D100000034EF20012C0F2F5521A6043F2801323
:102D2000C2F200034EF20012C0F2F5521A6043F2F2
:102D30008413C2F2000347F64002C0F27D121A600B
:102D400043F28813C2F200034EF20012C0F2F552B1
:102D50001A6043F28C13C2F200034EF20012C0F26A
:102D6000F5521A6043F29013C2F200034EF20012C1
:102D7000C0F2F5521A6045E043F23813C2F2000384
:102D800007F1040293E8030082E8030048F200031D
:102D9000C4F20303D3F89C304FEA931303F0070304
:102DA000BB61BB6907F12002134413F81C3CFB779D
:102DB000FB7F012B0BD0022B0ED0002B14D100F087
:102DC00025F803463B61386900F042F81AE04FF4F9
:102DD000004000F03DF815E044F24020C0F20F0042
:102DE00000F036F800BF0DE044F24020C0F20F00C2
:102DF00000F02EF806E000F009F803463B61386960
:102E000000F026F807F12007BD4680BD80B483B0EE
:102E100000AF48F20003C4F20303D3F8503103F0CB
:102E200004033B603B68002B05D147F64003C0F22A
:102E30007D137B6004E04FF28003C0F2FA237B60D5
:102E40007B68184607F10C07BD4680BC704700BF81
:102E500080B483B000AF786043F27813C2F200030D
:102E60007A681A6043F27C13C2F200037A681A602F
:102E700043F28013C2F200037A681A6043F28413AB
:102E8000C2F2000347F64002C0F27D121A6043F21C
:102E90008813C2F200037A681A6043F28C13C2F2FC
:102EA00000037A681A6043F29013C2F200037A6852
:102EB0001A6007F10C07BD4680BC704780B483B030
:102EC00000AF48F20003C4F20303D3F84C317B6037
:102ED0007A684FF602039A4206D04FF60203C0F218
:102EE00001039A4204D007E04FF001033B6006E083
:102EF0004FF002033B6002E04FF000033B603B6891
:102F0000184607F10C07BD4680BC704780B582B0FB
:102F100000AFFFF7D3FF03467B607B68012B01D135
:102F200000F004F807F10807BD4680BD80B400AF8B
:102F300048F20003C4F2030348F20002C4F20302A1
:102F4000D2F8982042F48072C3F8982048F2000327
:102F5000C4F2030348F20002C4F20302D2F898203C
:102F600022F08062C3F89820BD4680BC704700BF45
:102F700070B543F2581643F25815C2F20006C2F279
:102F80000005761BB61006D0002455F82430013415
:102F90009847A642F9D843F2581543F25C16C2F29C
:102FA0000005C2F20006761B00F0CAF8B61006D083
:102FB000002455F8243001349847A642F9D870BD52
:102FC000032AC9B230B407D822B10023C154013357
:102FD0009342FBD130BC704700EB020C034601E08A
:102FE00003F8011C03F003041A460133002CF7D147
:102FF0004FF00133C2EB0C0403FB01F31FE042F876
:10300000403C42F83C3C42F8383C42F8343C42F800
:10301000303C42F82C3C42F8283C42F8243C42F830
:10302000203C42F81C3C42F8183C42F8143C42F860
:10303000103C42F80C3C42F8083C42F8043C15466F
:1030400040323F2CA4F14004D9DC2A46C5EB0C04E5
:1030500007E042F8103C42F80C3C42F8083C42F8C9
:10306000043C154610320F2CA4F11004F1DC2A4662
:10307000C5EB0C0501E042F8043C14460432032D74
:10308000A5F10405F7DC01E004F8011B6445FBD35E
:10309000A0E700BFE43100200030014004300140CF
:1030A000083001400C300140103001401430014024
:1030B000183001401C3001402030014024300140D4
:1030C000283001402C300140303001403430014084
:1030D000383001403C300140403001404430014034
:1030E000483001404C3001405030014054300140E4
:1030F000583001405C300140603001406430014094
:10310000683001406C300140703001407430014043
:10311000783001407C30014032333435363738392D
:103120003A3B3C3D3E3F4041424344454647484987
:103130004A4B4C4D4E4F5051000100010202030317
:10314000F8B500BFF8BC08BC9E467047F8B500BF94
:10315000F8BC08BC9E467047D5040020C10400207E
:1031600000000000020202020200000048656C6CD0
:103170006F576F726C64000000E1F50500E1F50522
:1031800000E1F50540787D0100E1F50500E1F50578
:1031900000E1F50500000000000000000000000054
:040000052000019145
:00000001FF
