:1000000000000120910100007F0300008103000037
:100010008303000085030000870300000000000048
:100020000000000000000000000000008903000044
:100030008B030000000000008D0300008F03000010
:100040009103000093030000950300009703000054
:10005000990300009B0300009D0300009F03000024
:10006000A1030000A3030000F9110000D911000052
:10007000A9030000AB030000AD030000AF030000C4
:10008000B1030000B3030000B5030000B703000094
:10009000B9030000BB030000BD030000BF03000064
:1000A000C1030000C3030000C5030000C703000034
:1000B000C9030000CB030000CD030000CF03000004
:1000C000D1030000D3030000D5030000D7030000D4
:1000D000D9030000DB030000DD030000DF030000A4
:1000E000E1030000E3030000E5030000E703000074
:1000F000E9030000EB030000ED030000EF03000044
:10010000F1030000F3030000F5030000F703000013
:10011000F9030000FB030000FD030000FF030000E3
:1001200001040000030400000504000007040000AF
:10013000F10400000B0400000D0400000F04000097
:10014000110400001304000015040000170400004F
:10015000190400001B0400001D0400001F0400001F
:1001600021040000230400002504000027040000EF
:10017000290400002B0400002D0400002F040000BF
:100180003104000033040000000000000000000003
:100190004FF0000BDFF8BE020068DFF8B612096806
:1001A00001F0030100F01C00142801D14BF0020BF8
:1001B000002901D04BF0010BBBF1000F05D0A7487F
:1001C000A749DFF8722200F09FF8A64880470BF09D
:1001D000020ABAF1000F0CD0DFF86E02DFF86E12DF
:1001E00002680B680FB44FF000024FF0FF0302608B
:1001F0000B609D489D4A9E4B022808D1DFF83E12B5
:100200000A60DFF842120A60DFF836120B6001283C
:1002100008D1DFF82E120A60DFF82A120A60DFF830
:100220001E120B609348002809D193489349944AC1
:1002300000F032F893489449944A00F02DF894481D
:100240009449954A00F028F894489549DFF8E6214A
:1002500000F05AF8BBF1000F12D092489249DFF833
:10026000DA2100F051F80BF0020ABAF1000F07D0C2
:100270000FBC02600B6000BFAFF30080AFF30080E3
:10028000DFF828020FF2030E00474FF000004FF096
:100290000001DFF81CF2FEE72DE9F841884225D085
:1002A000B2EB010200D5FEE740EA010313F00303BD
:1002B00002D000F01DF819E04FF000039046121133
:1002C000F7D09A421CBFF0C8F0C103F10103F8D186
:1002D00008F00F08B8F1000F08D004780C7000F196
:1002E000010001F10101B8F10108F6D1BDE8F88182
:1002F00008B54FF0000303780B7000F1010001F125
:100300000101013AF7D108BD884237D000F0030659
:10031000002E14D04FF00405A5EB06044FF008079B
:1003200007FB06F8914669FA08F9002C07D080F817
:10033000009069FA07F900F10100013CF5E74FF080
:1003400000060F46091A88460911914614461546BB
:10035000B14206D018BFA0E8340206F10106B1424E
:10036000F8D108F00F08B8F1000F07D002704FEA7B
:10037000322200F10100B8F10108F4E77047FEE70E
:10038000FEE7FEE7FEE7FEE7FEE7FEE7FEE7FEE745
:10039000FEE7FEE7FEE7FEE7FEE7FEE7FEE7FEE735
:1003A000FEE7FEE7FEE7FEE7FEE7FEE7FEE7FEE725
:1003B000FEE7FEE7FEE7FEE7FEE7FEE7FEE7FEE715
:1003C000FEE7FEE7FEE7FEE7FEE7FEE7FEE7FEE705
:1003D000FEE7FEE7FEE7FEE7FEE7FEE7FEE7FEE7F5
:1003E000FEE7FEE7FEE7FEE7FEE7FEE7FEE7FEE7E5
:1003F000FEE7FEE7FEE7FEE7FEE7FEE7FEE7FEE7D5
:10040000FEE7FEE7FEE7FEE7FEE7FEE7FEE7FEE7C4
:10041000FEE7FEE7FEE7FEE7FEE7FEE7FEE7FEE7B4
:10042000FEE7FEE7FEE7FEE7FEE7FEE7FEE7FEE7A4
:10043000FEE7FEE7704700000000A2A2A2A2008033
:100440000340088003401080034030800340348024
:1004500003403880034018080240000000F00020EC
:1004600000000120E918000000000000000000006A
:10047000010000000000000000000000000000007B
:1004800090010000C0040000C0040000501A0000E9
:10049000501A000000000020300000203000002032
:1004A000E0000020E000002000F0002029190000FA
:1004B0003D0C0000AFF30080AFF30080AFF300808D
:1004C00040F23003C2F200031A780AB90120187012
:1004D000704700BF40F20000C2F2000008B5036898
:1004E0002BB140F20003C0F2000303B1984708BDEE
:1004F00070B51520012101F0F3F843F20006082041
:10050000012101F0EDF8C4F201060920012101F0FA
:10051000E7F840F25004D6F88420C2F2000440F21A
:1005200034052270C2F20005082000212A6001F083
:10053000D7F80920012101F0D3F8D6F8843008203B
:10054000637001212B6001F0CBF80920002101F03C
:10055000C7F8D6F884200820A27000212A6001F094
:10056000BFF80920002101F0BBF8D6F88410CAB208
:1005700002F00F00431E2960E2700E2B00F288810A
:10058000DFE813F08D0194019B01A201A901B001E4
:10059000B701BE01C501CC01D301DA01E1010F00B1
:1005A0007F0140F20403C2F200034520D871A07815
:1005B00000F00F0101390E2900F25D81DFE811F032
:1005C0005801550152014F014C01490146014301B7
:1005D00040013D013A01370134010F005E01452120
:1005E0005971617801F00F0E0EF1FF3CBCF10E0F56
:1005F00000F21081DFE81CF009010401FF00FA009D
:10060000F500F000EB00E600E100DC00D700D200CE
:10061000CD000F0013014FF0450E83F803E094F86E
:1006200000C00CF00F0404F1FF3EBEF10E0F00F20B
:10063000A880DFE80EF0A39E9B96938E8B86837E28
:100640007B767308AB004FF0450E83F801E002F0B3
:10065000F002702A00F05C8200F38581302A00F0FD
:10066000278200F3FA81102A00F05E82202A00F02F
:100670005882002A00F0748100F0F000702800F029
:100680004D8200F3A081302800F06C8200F3B68127
:10069000102800F06A82202800F03D82002800F037
:1006A0005C8101F0F001702900F0268200F37B816B
:1006B000302900F04E8200F3C681102900F04682F6
:1006C000202900F04082002900F044810CF0F00263
:1006D000702A00F0358200F35681302A00F02A8219
:1006E00000F3D381102A00F04C82202A00F02582EA
:1006F0000AB9302119700A240D2240F2940040F208
:100700000401C2F20000C2F200011A725C7200F031
:10071000FBFB2046BDE8704001F01AB844245C7031
:1007200095E74FF0430E83F801E090E742245C70B8
:100730008DE74FF0410E83F801E088E739245C70C3
:1007400085E74FF0380E83F801E080E737245C70CE
:100750007DE74FF0360E83F801E078E735245C70D2
:1007600075E74FF0340E83F801E070E733245C70D6
:100770006DE74FF0320E83F801E068E731245C70DA
:1007800065E74FF0300E83F801E060E746245C70C7
:100790005DE74FF0440C83F803C040E74FF0430E91
:1007A00083F803E03BE74FF0420C83F803C036E7E1
:1007B0004FF0410E83F803E031E74FF0390C83F836
:1007C00003C02CE74FF0380E83F803E027E74FF023
:1007D000370C83F803C022E74FF0360E83F803E0AE
:1007E0001DE74FF0350C83F803C018E74FF0340EC7
:1007F00083F803E013E74FF0330C83F803C00EE7F0
:100800004FF0320E83F803E009E74FF0310C83F824
:1008100003C004E74FF0300E83F803E0FFE64FF02B
:10082000460C83F803C0FAE644215971D9E6432106
:100830005971D6E642215971D3E641215971D0E66A
:1008400039215971CDE638215971CAE637215971DC
:10085000C7E636215971C4E635215971C1E6342104
:100860005971BEE633215971BBE632215971B8E6A0
:1008700031215971B5E630215971B2E646215971DD
:10088000AFE640F20403C2F200034621D9718EE6BE
:1008900040F20403C2F200033020D87187E640F230
:1008A0000403C2F200033121D97180E640F204034F
:1008B000C2F200033220D87179E640F20403C2F29A
:1008C00000033321D97172E640F20403C2F200033F
:1008D0003420D8716BE640F20403C2F200033521E4
:1008E000D97164E640F20403C2F200033620D871E5
:1008F0005DE640F20403C2F200033721D97156E6E7
:1009000040F20403C2F200033820D8714FE640F2EF
:100910000403C2F200033921D97148E640F204030E
:10092000C2F200034120D87141E640F20403C2F252
:1009300000034221D9713AE640F20403C2F20003F7
:100940004320D87133E640F20403C2F2000344218D
:10095000D9712CE630209870B8E630201871A0E6E6
:1009600030249C7188E6B02A00F0CF807FDC902A8A
:1009700000F0B080A02A00F0DA80802A7FF47CAEFC
:1009800038249C7178E6B02A00F0A7804DDC902ACC
:1009900000F0F480A02A00F0EE80802A7FF4ABAE55
:1009A00038211970A7E6B02900F0A38030DC902927
:1009B00000F09C80A02900F0D28080297FF486AED0
:1009C0003820987082E6B02878D009DC90287BD057
:1009D000A02876D080287FF464AE38221A7160E6B1
:1009E000D02800F0C58040F3E480E02800F0F080DB
:1009F000F0287FF456AE4620187152E650285AD09F
:100A0000602870D040287FF44CAE34241C7148E636
:100A1000D02965D040F3C780E02900F0D380F029C9
:100A20007FF454AE4621997050E6D02A00F09480AD
:100A300040F3B380E02A00F0C880F02A7FF45BAE78
:100A40004620187057E650295CD0602957D04029BD
:100A50007FF43CAE3420987038E6502A25D0602AC6
:100A600035D0402A7FF408AE34249C7104E6D02AA5
:100A700000F08A8040F38B80E02A00F0A080F02A0A
:100A80007FF4FAAD46229A71F6E5502A0AD0602A20
:100A900005D0402A7FF42FAE342119702BE636247E
:100AA0001C7028E635221A7025E635229A71E3E596
:100AB00033229A71E0E535221A71F2E542221A7169
:100AC000EFE541241C71ECE539201871E9E5362485
:100AD0009C71D1E539229A71CEE5422018700AE660
:100AE00044249C70F2E536201871DAE539249C70B4
:100AF000ECE542219970E9E537219970E6E5362267
:100B00009A70E3E535249C70E0E542229A71B3E5E2
:100B100037229A71B0E532221A71C2E537241C716E
:100B2000BFE532249C71A7E531229A71A4E54124E6
:100B30009C71A1E533201870DDE532241C70DAE5E4
:100B400037201870D7E532229A70BFE531249C70A7
:100B5000BCE533219970B9E544221A70CBE54122F6
:100B60009A70B3E5332018719BE531241C7198E528
:100B700044241C7195E541241C70BCE539221A708F
:100B8000B9E531221A70B6E544229A7174E5C02A9B
:100B90007FF472AD43249C716EE5C02A7FF4ABAD47
:100BA00043211970A7E5C0297FF490AD43209870C8
:100BB0008CE5C0287FF475AD4320187171E545249C
:100BC0009C7159E545229A7080E545241C7092E598
:100BD00045221A7165E500BF70B540F23104064642
:100BE00000210F20C2F2000400F07AFD40F23C0523
:100BF0002178C2F2000530466918012200F0C2F9DE
:100C000040F23803C2F200031E7886B921786A5C8C
:100C10000D2A0DD040F294006918C2F2000000F0D5
:100C200073F92178481CC3B2132B237003D070BD15
:100C300001221A7070BD267070BD00BF2DE9F04F03
:100C400040F2940083B00322C2F200004FF4E1317D
:100C500000F0C0FC40F2940040F6D9310022C2F20C
:100C60000000C0F2000100F0C7F900F0E3FC0A2028
:100C7000622100F02BFD0020022100F027FD012061
:100C8000022100F023FD0220014600F01FFD032099
:100C9000022100F01BFD0420022100F017FD0520B9
:100CA000022100F013FD0620022100F00FFD0720B5
:100CB000022100F00BFD0820052100F007FD0920AE
:100CC000052100F003FD0B20052100F0FFFC0C20A6
:100CD000052100F0FBFC0D20052100F0F7FC0E20A3
:100CE000052100F0F3FC1020052100F0EFFC11209D
:100CF000052100F0EBFC1220052100F0E7FC132099
:100D0000052100F0E3FC1420052100F0DFFC0F209A
:100D1000052100F0DBFC1520052100F0D7FC0B209D
:100D2000002100F0DDFC0C20002100F0D9FC0D209A
:100D3000002100F0D5FC0E20012100F0D1FC15208F
:100D4000012100F0CDFC0F20012100F0C9FC102092
:100D5000002100F0C5FC1120012100F0C1FC12208F
:100D6000002100F0BDFC1320002100F0B9FC40F28E
:100D700038071420002100F0B3FCC2F200070A205B
:100D800000F0C4FC3B7840F23C05C2F2000541F69D
:100D9000781901AE40F2310A0024012BC0F200099B
:100DA000C2F2000AB046AB4624D1D9F8001040F296
:100DB00094000A0C3180B270C2F20000414600F08B
:100DC000A3F82B784646732B2BD0722B13D03C7094
:100DD0008AF800402C706C700223591C5C554B1C27
:100DE000142B4C55F9D10F20012100F079FC3B78F0
:100DF000012BDAD0FEE768787328E8D19BF802C0AF
:100E0000BCF1740FE3D19BF803E0BEF15F0FDED1BC
:100E10009BF804206E2ADAD11520002100F060FC36
:100E2000D5E79BF80100652801D02B78CDE79BF82A
:100E300002C0BCF1740F36D095F802C0BCF1740F3B
:100E400002D09BF80030C0E79BF803E0BEF15F0FD3
:100E5000BDD19BF80420612AB9D19BF80A1010205B
:100E60001E39C9B200F03CFC9BF8093011201E3B32
:100E7000D9B200F035FC9BF8082012201E3AD1B2FE
:100E800000F02EFC9BF8071013201E39C9B200F0A9
:100E900027FC9BF8063014201E3BD9B200F020FC42
:100EA0009BF8003091E79BF803E0BEF15F0FC3D1E0
:100EB0009BF80430632BBFD19BF809100B201E391F
:100EC000C9B200F00DFC9BF808300C201E3BD9B2D3
:100ED00000F006FC9BF807200D201E3AD1B200F06E
:100EE000FFFB9BF806100E201E39C9B200F0F8FB7C
:100EF0009BF80030732B7FF468AF9BF801006528E6
:100F00009AD02B7861E700BF40F29403C2F200034D
:100F100098422DE9F00508D040F25402C2F20002D6
:100F2000904202D0BDE8F00570470029FAD00D7854
:100F3000002DF7D0427B04684FF0000C237D1A434C
:100F400013F0200FFAD0427325B96346002DE9D083
:100F50009C46F3E7D0F800A0002601EB0C08013610
:100F60008AF8005018F8065006EB0C032F1E18BF25
:100F700001270F2E8CBF002707F00107002FE5D0B7
:100F8000EDE700BF40F29403C2F20003984270B450
:100F900009D040F2540CC2F2000C604503D000238B
:100FA000184670BC70470B1E18BF0123002A0CBFE7
:100FB000002303F00103002BF1D0046890F80DC06A
:100FC000237D43EA0C0C13F0010F80F80DC0E6D02E
:100FD00000232578CD540468467B94F814C001336F
:100FE0004CEA06069A4294BF00250CF001054673B0
:100FF000002DEED1D4E700BF40F29403C2F200030B
:10100000984230B407D040F2540CC2F2000C604554
:1010100001D030BC70470B1E18BF0123C02A8CBF03
:10102000002303F00103002BF3D00568016295F85B
:1010300008C001240CF03F031A432A72027905F11B
:10104000040C02F01F0014FA00F02CF07F4351B2A0
:1010500023F4700549094EF200130CF0704CCEF2E7
:1010600000036A010CF1007C01F1600543F82500E2
:101070004CF8024043F82100CBE700BF40F2940354
:10108000C2F20003984210B5044606D040F2540064
:10109000C2F20000844200D010BD2268117A01F033
:1010A0000F0CBCF10C0FF7D801A151F82CF000BFC8
:1010B0000111000099100000F91000000911000052
:1010C000F110000099100000E510000099100000D8
:1010D000991000009910000099100000991000006C
:1010E000F1100000E369002BD6D02046984710BDD0
:1010F000236A002BF9D1CFE7636A002BF5D1CBE748
:10110000A36A002BF1D1C7E7283222F07F4020F4F8
:10111000700302F07041580101F1007C5CF800306E
:1011200013F0FF0F05D0E36A1BB1204698472268F1
:10113000283202F0704022F07F4C00F100732CF452
:101140007001181D4901435813F0FF0F05D0236BA0
:101150001BB1204698472268283202F0704322F0E3
:101160007F4C03F100702CF47001083049014358A2
:1011700013F0FF0F05D0636B1BB120469847226820
:10118000283202F0704322F07F4C2CF4700003F1FF
:1011900000730C334101585810F0FF0F05D0A36BBA
:1011A0001BB1204698472268283222F07F4C02F07B
:1011B000704101F100722CF4700310325801115883
:1011C00011F0FF0F3FF468AFE36B002B3FF464AF07
:1011D0002046984760E700BF684620F007018D462B
:1011E00001B540F25400C2F20000FFF747FFBDE82E
:1011F00001408546704700BF684620F007018D46D4
:1012000001B540F29400C2F20000FFF737FFBDE8DD
:1012100001408546704700BF40F29403C2F20003CC
:10122000984270B407D040F25401C2F200018842E3
:1012300001D070BC70470469002CFAD04369002BC0
:10124000F7D0016890F80DC00A7D42EA0C0C12F04C
:10125000200F80F80DC0826929D09D1A0F2D38D932
:101260001025A41826786B1E0E7003F001060123CA
:1012700001329D42826119D946B194F801C002231E
:1012800001329D4281F800C082610FD914F803C079
:10129000013281F800C00133826114F803C00133C8
:1012A00001329D4281F800C08261EFD843699A42C1
:1012B000BFD102680021131D23F07F4C03F0704260
:1012C00002F100732CF47002043352019950416111
:1012D000AFE7002DC5D1EAE72DE9F04F40F29403C6
:1012E0008FB0C2F200030B9248F200029842C4F29F
:1012F000030204460D91906C4EF2001100F029811A
:1013000040F48077CEF200014FF400669764C1F894
:101310008061956C40F2000125F48070C4F20101F7
:1013200090640B222271216000220D460A7101F1A6
:10133000100605F8082F01F1380A2AF07F4B01F159
:10134000340925F07F4726F07F4805F0704506F008
:1013500070460AF0704ACDF810A0069529F07F403B
:1013600006F100750390019509F07049049DCDF8D0
:101370001C90DDF80C9005F1007529F4700A0A95AF
:101380002BF47009079DDDF818B0CDF814900BF11F
:10139000007905F1007B049D01F1300C2CF07F40B9
:1013A00005F100750CF0704CCDF80CA004950CF113
:1013B00000750CF1007AAC46039DCDF824A06D01B8
:1013C0000395059D28F470086D010595069DCA4694
:1013D00005F100750695019D4FEA481814350195F1
:1013E000079D27F4700705F100750795049D7F019F
:1013F00004350495654614350895099DCDF830806F
:101400001C3509950A9D4FF001080C350AF1080AB0
:1014100009F104090A9506F1007649F807800C9D48
:101420004AF80780DDF818A010364AF80780725194
:10143000DDF80CA0019E0BF1040B72514BF80A2051
:10144000DDF81CB0059D4BF80A20049EDDF820A0B5
:1014500020F4700040010CF1180C7251DDF824B03A
:101460004AF800204CF80020DDF828C09C424BF8D8
:1014700000204CF8052081F8442081F8482081F8AC
:101480004C2079D040F25403C2F200039C4215D0A4
:101490000B9D00200D7360730D9E6061A660257327
:1014A0002061A06120626062E061A062E06220636E
:1014B0006063A063E0630FB0BDE8F08F0D9FA7608D
:1014C00000F054F940F22401C2F200010A680D9EB6
:1014D000D700B7FBF6F2D3095708B3F5803F28BF12
:1014E0002168D5D2012B216850D901F10C0020F0E0
:1014F0007F4C00F0704606F100702CF4700A4FEA41
:101500004A1E0D465FFA83F8A7EB83171C300126AD
:10151000C2F3C73A40F80E60A7EBC31381F804A0EA
:1015200005F8308B9A1825F07F4305F0704523F4B9
:101530007008A2EB470705F100751C354FEA481803
:10154000FFB2002340F80E3045F8086081F83C7087
:101550009EE740F08007CEF200014FF4806697646A
:10156000C1F88061956C4FF0804125F08000906457
:101570000A2222712160D7E60D9AA26000F0F6F8E7
:1015800040F22001C2F200010A68A0E701F10C0C50
:101590002CF07F4E0CF070422EF4700502F10072B8
:1015A0004FEA451E08460025DBB21C32012642F8F0
:1015B0000E600D7100F8303B20F07F4C00F0704061
:1015C00000F100762CF470031C365B0142F80E50DB
:1015D000F5505DE7F8B50446FFF77EFE22684FF64A
:1015E000FF7302F1340002F13005C0F20F0305F081
:1015F0007047383200F0704102EA030607F1007CC0
:101600001D4000EA030702F0704201F1007141F24F
:1016100019207B010CF10C0C02F100776D01002206
:1016200008317601C0F200004CF805206062CA5013
:10163000BA51F8BD48F20002C4F203022DE9F005E8
:10164000946C41F67C1644F480139364906C4EF2D3
:10165000001340F0F0719164C0F20006CEF2000376
:1016600000220127551CB45C16F805A004F01F00E9
:101670000AF01F0117FA00F017FA01F14FFA8AF881
:1016800062B254094FEA581C6A1C04F1600A0CF15A
:10169000600820340CF1200C202A43F8240043F881
:1016A0002A0043F82C1043F82810DBD148F200033D
:1016B000C4F203039A6C22F0F0709864996C21F4E0
:1016C00080129A64BDE8F005704700BF1F289FBFD5
:1016D00041F69C13C0F2000353F8203019607047A4
:1016E0001F2812D8012202FA00FC01F0010313FAAC
:1016F00000F043F20003C4F20103D3F8882022EA89
:101700000C0141EA0000C3F8880070471F2810B49C
:101710001CD841F67C11C0F2000111F800C0012470
:101720000CF01F02944041F69C13C0F2000353F8E2
:1017300020204FFA8CF110684EF2001340F00800A0
:101740004909CEF20003106043F8214010BC7047F5
:101750001F2808D8012111FA00F043F20003C4F257
:101760000103C3F88000BFF34F8F7047F0B448F215
:101770000003C4F20303D3F8982082B012F0806F04
:1017800018D1D3F8980010F4805F48D041F61C229D
:10179000C0F20002EC4692E803008CE80300D3F8A4
:1017A0009C7002AEC7F38215741914F8081C012945
:1017B00077D061D2D3F8504147F640024FF2800310
:1017C000C0F27D1214F0040FC0F2FA2340F2280692
:1017D00040F2200540F2240440F2140C40F21800BC
:1017E00040F21C0140F2100708BF1346C2F2000687
:1017F000C2F20005C2F20004C2F2000CC2F2000004
:10180000C2F20001C2F20007CCF800203B60336056
:101810002B60236003600B6002B0F0BC70474EF297
:10182000001340F2280540F2200440F2240040F268
:10183000140747F6400C40F2180140F21C0240F237
:101840001006C0F2F553C2F20005C2F20004C2F263
:101850000000C2F20007C0F27D1CC2F20001C2F219
:101860000002C2F20006C7F800C033602B6023609C
:1018700003600B601360CFE744F2402340F2280579
:1018800040F2200440F2240040F2140747F6400CD6
:1018900040F2180140F21C0240F21006C0F20F03A1
:1018A000D1E740F2280540F2200440F2240040F243
:1018B000140747F6400C40F2180140F21C0240F2B7
:1018C0001006C2F20005C2F20004C2F20000C2F229
:1018D0000007C0F27D1CC2F20001C2F20002C2F297
:1018E00000064FF40043BEE748F20003C4F20303CE
:1018F000D3F84C114FF6020291420BD1D3F8980065
:1019000040F48072C3F89820D3F8981021F08060DA
:10191000C3F898004EF60053CEF200035A6942F421
:1019200000715961FEF786BD70B541F63C2641F65F
:101930003C25C0F20006C0F20005761BB61006D0AA
:10194000002455F8243001349847A642F9D841F6CE
:101950003C2541F64026C0F20005C0F20006761B89
:1019600000F060F8B61006D0002455F82430013499
:101970009847A642F9D870BD0D0A000032333435BD
:10198000363738393A3B3C3D3E3F4041424344457F
:10199000464748494A4B4C4D4E4F5051003001404C
:1019A00004300140083001400C300140103001404B
:1019B00014300140183001401C30014020300140FB
:1019C00024300140283001402C30014030300140AB
:1019D00034300140383001403C300140403001405B
:1019E00044300140483001404C300140503001400B
:1019F00054300140583001405C30014060300140BB
:101A000064300140683001406C300140703001406A
:101A100074300140783001407C3001400001000109
:101A200002020303F8B500BFF8BC08BC9E4670472D
:101A3000F8B500BFF8BC08BC9E467047D50400004E
:101A4000C1040000000000000000000000000000D1
:101A50000000000048656C6C6F576F726C6400008A
:101A600000E1F50540787D0100E1F50500E1F505AF
:101A700000E1F50500E1F50500E1F50500000000D5
:040000030000019167
:00000001FF
